{
  "_format": "hh-sol-artifact-1",
  "contractName": "SwapUSDC",
  "sourceName": "contracts/SwapUSDCv2.sol",
  "abi": [
    {
      "inputs": [],
      "name": "DAI",
      "outputs": [
        {
          "internalType": "address",
          "name": "",
          "type": "address"
        }
      ],
      "stateMutability": "view",
      "type": "function"
    },
    {
      "inputs": [],
      "name": "LINK",
      "outputs": [
        {
          "internalType": "address",
          "name": "",
          "type": "address"
        }
      ],
      "stateMutability": "view",
      "type": "function"
    },
    {
      "inputs": [],
      "name": "USDC",
      "outputs": [
        {
          "internalType": "address",
          "name": "",
          "type": "address"
        }
      ],
      "stateMutability": "view",
      "type": "function"
    },
    {
      "inputs": [],
      "name": "WETH9",
      "outputs": [
        {
          "internalType": "address",
          "name": "",
          "type": "address"
        }
      ],
      "stateMutability": "view",
      "type": "function"
    },
    {
      "inputs": [],
      "name": "bucket",
      "outputs": [
        {
          "internalType": "uint256",
          "name": "wbtc",
          "type": "uint256"
        },
        {
          "internalType": "uint256",
          "name": "dai",
          "type": "uint256"
        },
        {
          "internalType": "uint256",
          "name": "eth",
          "type": "uint256"
        }
      ],
      "stateMutability": "view",
      "type": "function"
    },
    {
      "inputs": [
        {
          "internalType": "string",
          "name": "tokenid",
          "type": "string"
        },
        {
          "internalType": "uint256",
          "name": "amoountIn",
          "type": "uint256"
        }
      ],
      "name": "fetchPercentSwap",
      "outputs": [
        {
          "internalType": "uint256",
          "name": "",
          "type": "uint256"
        }
      ],
      "stateMutability": "view",
      "type": "function"
    },
    {
      "inputs": [
        {
          "internalType": "address",
          "name": "routeraddr",
          "type": "address"
        },
        {
          "internalType": "address",
          "name": "daiaddr",
          "type": "address"
        },
        {
          "internalType": "address",
          "name": "wethaddr",
          "type": "address"
        },
        {
          "internalType": "address",
          "name": "usdcaddr",
          "type": "address"
        },
        {
          "internalType": "address",
          "name": "linkaddr",
          "type": "address"
        },
        {
          "internalType": "uint256",
          "name": "daipercent",
          "type": "uint256"
        },
        {
          "internalType": "uint256",
          "name": "wethpercent",
          "type": "uint256"
        },
        {
          "internalType": "uint256",
          "name": "linkpercent",
          "type": "uint256"
        }
      ],
      "name": "initVars",
      "outputs": [],
      "stateMutability": "nonpayable",
      "type": "function"
    },
    {
      "inputs": [],
      "name": "poolFee",
      "outputs": [
        {
          "internalType": "uint24",
          "name": "",
          "type": "uint24"
        }
      ],
      "stateMutability": "view",
      "type": "function"
    },
    {
      "inputs": [],
      "name": "routerAddress",
      "outputs": [
        {
          "internalType": "address",
          "name": "",
          "type": "address"
        }
      ],
      "stateMutability": "view",
      "type": "function"
    },
    {
      "inputs": [
        {
          "internalType": "uint256",
          "name": "amt",
          "type": "uint256"
        }
      ],
      "name": "swap",
      "outputs": [
        {
          "internalType": "bytes[]",
          "name": "results",
          "type": "bytes[]"
        }
      ],
      "stateMutability": "payable",
      "type": "function"
    },
    {
      "inputs": [],
      "name": "swapRouter",
      "outputs": [
        {
          "internalType": "contract ISwapRouter",
          "name": "",
          "type": "address"
        }
      ],
      "stateMutability": "view",
      "type": "function"
    },
    {
      "inputs": [
        {
          "internalType": "uint256",
          "name": "amountIn",
          "type": "uint256"
        }
      ],
      "name": "swapToDai",
      "outputs": [],
      "stateMutability": "nonpayable",
      "type": "function"
    },
    {
      "inputs": [
        {
          "internalType": "uint256",
          "name": "amountIn",
          "type": "uint256"
        }
      ],
      "name": "swapToWETH9",
      "outputs": [],
      "stateMutability": "nonpayable",
      "type": "function"
    },
    {
      "inputs": [
        {
          "internalType": "uint256",
          "name": "amountIn",
          "type": "uint256"
        }
      ],
      "name": "swapUSDCtoLink",
      "outputs": [],
      "stateMutability": "nonpayable",
      "type": "function"
    },
    {
      "inputs": [
        {
          "internalType": "string",
          "name": "",
          "type": "string"
        }
      ],
      "name": "tokenBucket",
      "outputs": [
        {
          "internalType": "uint256",
          "name": "",
          "type": "uint256"
        }
      ],
      "stateMutability": "view",
      "type": "function"
    }
  ],
  "bytecode": "0x608060405234801561001057600080fd5b50611f2f806100206000396000f3fe6080604052600436106100e85760003560e01c80634aa4a4fc1161008a578063c029e86811610059578063c029e868146102e9578063c244de1b14610316578063c31c9c071461033f578063e0bab4c41461036a576100e8565b80634aa4a4fc146102265780636dc9935b1461025157806389a302711461028e57806394b918de146102b9576100e8565b80631b6b6d23116100c65780631b6b6d231461017e57806329f83011146101a95780633268cc56146101d25780633f9425ee146101fd576100e8565b8063089fe6aa146100ed5780630bf973a8146101185780631683587c14610141575b600080fd5b3480156100f957600080fd5b50610102610395565b60405161010f9190611c59565b60405180910390f35b34801561012457600080fd5b5061013f600480360381019061013a919061175e565b61039b565b005b34801561014d57600080fd5b506101686004803603810190610163919061170a565b6106b4565b6040516101759190611c74565b60405180910390f35b34801561018a57600080fd5b506101936106ee565b6040516101a09190611b63565b60405180910390f35b3480156101b557600080fd5b506101d060048036038101906101cb919061175e565b610714565b005b3480156101de57600080fd5b506101e7610a2d565b6040516101f49190611b63565b60405180910390f35b34801561020957600080fd5b50610224600480360381019061021f91906115ad565b610a53565b005b34801561023257600080fd5b5061023b610c68565b6040516102489190611b63565b60405180910390f35b34801561025d57600080fd5b5061027860048036038101906102739190611688565b610c8e565b6040516102859190611c74565b60405180910390f35b34801561029a57600080fd5b506102a3610cbc565b6040516102b09190611b63565b60405180910390f35b6102d360048036038101906102ce919061175e565b610ce2565b6040516102e09190611bde565b60405180910390f35b3480156102f557600080fd5b506102fe61110c565b60405161030d93929190611c8f565b60405180910390f35b34801561032257600080fd5b5061033d6004803603810190610338919061175e565b611124565b005b34801561034b57600080fd5b5061035461143d565b6040516103619190611c00565b60405180910390f35b34801561037657600080fd5b5061037f611463565b60405161038c9190611b63565b60405180910390f35b610bb881565b600860009054906101000a900473ffffffffffffffffffffffffffffffffffffffff1673ffffffffffffffffffffffffffffffffffffffff166323b872dd3330846040518463ffffffff1660e01b81526004016103fa93929190611b7e565b602060405180830381600087803b15801561041457600080fd5b505af1158015610428573d6000803e3d6000fd5b505050506040513d601f19601f8201168201806040525081019061044c919061165f565b50600860009054906101000a900473ffffffffffffffffffffffffffffffffffffffff1673ffffffffffffffffffffffffffffffffffffffff1663095ea7b3600560009054906101000a900473ffffffffffffffffffffffffffffffffffffffff16836040518363ffffffff1660e01b81526004016104cc929190611bb5565b602060405180830381600087803b1580156104e657600080fd5b505af11580156104fa573d6000803e3d6000fd5b505050506040513d601f19601f8201168201806040525081019061051e919061165f565b506000604051806101000160405280600860009054906101000a900473ffffffffffffffffffffffffffffffffffffffff1673ffffffffffffffffffffffffffffffffffffffff168152602001600960009054906101000a900473ffffffffffffffffffffffffffffffffffffffff1673ffffffffffffffffffffffffffffffffffffffff168152602001610bb862ffffff1681526020013373ffffffffffffffffffffffffffffffffffffffff16815260200142815260200183815260200160008152602001600073ffffffffffffffffffffffffffffffffffffffff168152509050600560009054906101000a900473ffffffffffffffffffffffffffffffffffffffff1673ffffffffffffffffffffffffffffffffffffffff1663414bf389826040518263ffffffff1660e01b815260040161065d9190611c3d565b602060405180830381600087803b15801561067757600080fd5b505af115801561068b573d6000803e3d6000fd5b505050506040513d601f19601f820116820180604052508101906106af9190611787565b505050565b6000806003846040516106c79190611b0d565b90815260200160405180910390205490506064818402816106e457fe5b0491505092915050565b600960009054906101000a900473ffffffffffffffffffffffffffffffffffffffff1681565b600860009054906101000a900473ffffffffffffffffffffffffffffffffffffffff1673ffffffffffffffffffffffffffffffffffffffff166323b872dd3330846040518463ffffffff1660e01b815260040161077393929190611b7e565b602060405180830381600087803b15801561078d57600080fd5b505af11580156107a1573d6000803e3d6000fd5b505050506040513d601f19601f820116820180604052508101906107c5919061165f565b50600860009054906101000a900473ffffffffffffffffffffffffffffffffffffffff1673ffffffffffffffffffffffffffffffffffffffff1663095ea7b3600560009054906101000a900473ffffffffffffffffffffffffffffffffffffffff16836040518363ffffffff1660e01b8152600401610845929190611bb5565b602060405180830381600087803b15801561085f57600080fd5b505af1158015610873573d6000803e3d6000fd5b505050506040513d601f19601f82011682018060405250810190610897919061165f565b506000604051806101000160405280600860009054906101000a900473ffffffffffffffffffffffffffffffffffffffff1673ffffffffffffffffffffffffffffffffffffffff168152602001600760009054906101000a900473ffffffffffffffffffffffffffffffffffffffff1673ffffffffffffffffffffffffffffffffffffffff168152602001610bb862ffffff1681526020013373ffffffffffffffffffffffffffffffffffffffff16815260200142815260200183815260200160008152602001600073ffffffffffffffffffffffffffffffffffffffff168152509050600560009054906101000a900473ffffffffffffffffffffffffffffffffffffffff1673ffffffffffffffffffffffffffffffffffffffff1663414bf389826040518263ffffffff1660e01b81526004016109d69190611c3d565b602060405180830381600087803b1580156109f057600080fd5b505af1158015610a04573d6000803e3d6000fd5b505050506040513d601f19601f82011682018060405250810190610a289190611787565b505050565b600460009054906101000a900473ffffffffffffffffffffffffffffffffffffffff1681565b87600460006101000a81548173ffffffffffffffffffffffffffffffffffffffff021916908373ffffffffffffffffffffffffffffffffffffffff160217905550600460009054906101000a900473ffffffffffffffffffffffffffffffffffffffff16600560006101000a81548173ffffffffffffffffffffffffffffffffffffffff021916908373ffffffffffffffffffffffffffffffffffffffff16021790555086600660006101000a81548173ffffffffffffffffffffffffffffffffffffffff021916908373ffffffffffffffffffffffffffffffffffffffff16021790555085600760006101000a81548173ffffffffffffffffffffffffffffffffffffffff021916908373ffffffffffffffffffffffffffffffffffffffff16021790555084600860006101000a81548173ffffffffffffffffffffffffffffffffffffffff021916908373ffffffffffffffffffffffffffffffffffffffff16021790555083600960006101000a81548173ffffffffffffffffffffffffffffffffffffffff021916908373ffffffffffffffffffffffffffffffffffffffff160217905550826003604051610c0a90611b4e565b908152602001604051809103902081905550816003604051610c2b90611b24565b908152602001604051809103902081905550806003604051610c4c90611b39565b9081526020016040518091039020819055505050505050505050565b600760009054906101000a900473ffffffffffffffffffffffffffffffffffffffff1681565b6003818051602081018201805184825260208301602085012081835280955050505050506000915090505481565b600860009054906101000a900473ffffffffffffffffffffffffffffffffffffffff1681565b60606000600367ffffffffffffffff81118015610cfe57600080fd5b50604051908082528060200260200182016040528015610d3257816020015b6060815260200190600190039081610d1d5790505b50905063c244de1b60e01b610d7c6040518060400160405280600381526020017f4441490000000000000000000000000000000000000000000000000000000000815250856106b4565b604051602401610d8c9190611c74565b604051602081830303815290604052907bffffffffffffffffffffffffffffffffffffffffffffffffffffffff19166020820180517bffffffffffffffffffffffffffffffffffffffffffffffffffffffff838183161783525050505081600081518110610df657fe5b60200260200101819052506329f8301160e01b610e486040518060400160405280600481526020017f5745544800000000000000000000000000000000000000000000000000000000815250856106b4565b604051602401610e589190611c74565b604051602081830303815290604052907bffffffffffffffffffffffffffffffffffffffffffffffffffffffff19166020820180517bffffffffffffffffffffffffffffffffffffffffffffffffffffffff838183161783525050505081600181518110610ec257fe5b6020026020010181905250630bf973a860e01b610f146040518060400160405280600481526020017f4c494e4b00000000000000000000000000000000000000000000000000000000815250856106b4565b604051602401610f249190611c74565b604051602081830303815290604052907bffffffffffffffffffffffffffffffffffffffffffffffffffffffff19166020820180517bffffffffffffffffffffffffffffffffffffffffffffffffffffffff838183161783525050505081600281518110610f8e57fe5b6020026020010181905250805167ffffffffffffffff81118015610fb157600080fd5b50604051908082528060200260200182016040528015610fe557816020015b6060815260200190600190039081610fd05790505b50915060005b8151811015611105576000803073ffffffffffffffffffffffffffffffffffffffff1684848151811061101a57fe5b602002602001015160405161102f9190611af6565b600060405180830381855af49150503d806000811461106a576040519150601f19603f3d011682016040523d82523d6000602084013e61106f565b606091505b5091509150816110de5760448151101561108857600080fd5b600481019050808060200190518101906110a291906116c9565b6040517f08c379a00000000000000000000000000000000000000000000000000000000081526004016110d59190611c1b565b60405180910390fd5b808584815181106110eb57fe5b602002602001018190525050508080600101915050610feb565b5050919050565b60008060000154908060010154908060020154905083565b600860009054906101000a900473ffffffffffffffffffffffffffffffffffffffff1673ffffffffffffffffffffffffffffffffffffffff166323b872dd3330846040518463ffffffff1660e01b815260040161118393929190611b7e565b602060405180830381600087803b15801561119d57600080fd5b505af11580156111b1573d6000803e3d6000fd5b505050506040513d601f19601f820116820180604052508101906111d5919061165f565b50600860009054906101000a900473ffffffffffffffffffffffffffffffffffffffff1673ffffffffffffffffffffffffffffffffffffffff1663095ea7b3600560009054906101000a900473ffffffffffffffffffffffffffffffffffffffff16836040518363ffffffff1660e01b8152600401611255929190611bb5565b602060405180830381600087803b15801561126f57600080fd5b505af1158015611283573d6000803e3d6000fd5b505050506040513d601f19601f820116820180604052508101906112a7919061165f565b506000604051806101000160405280600860009054906101000a900473ffffffffffffffffffffffffffffffffffffffff1673ffffffffffffffffffffffffffffffffffffffff168152602001600660009054906101000a900473ffffffffffffffffffffffffffffffffffffffff1673ffffffffffffffffffffffffffffffffffffffff168152602001610bb862ffffff1681526020013373ffffffffffffffffffffffffffffffffffffffff16815260200142815260200183815260200160008152602001600073ffffffffffffffffffffffffffffffffffffffff168152509050600560009054906101000a900473ffffffffffffffffffffffffffffffffffffffff1673ffffffffffffffffffffffffffffffffffffffff1663414bf389826040518263ffffffff1660e01b81526004016113e69190611c3d565b602060405180830381600087803b15801561140057600080fd5b505af1158015611414573d6000803e3d6000fd5b505050506040513d601f19601f820116820180604052508101906114389190611787565b505050565b600560009054906101000a900473ffffffffffffffffffffffffffffffffffffffff1681565b600660009054906101000a900473ffffffffffffffffffffffffffffffffffffffff1681565b600061149c61149784611cf7565b611cc6565b9050828152602081018484840111156114b457600080fd5b6114bf848285611e5f565b509392505050565b60006114da6114d584611cf7565b611cc6565b9050828152602081018484840111156114f257600080fd5b6114fd848285611e6e565b509392505050565b60008135905061151481611eb4565b92915050565b60008151905061152981611ecb565b92915050565b600082601f83011261154057600080fd5b8135611550848260208601611489565b91505092915050565b600082601f83011261156a57600080fd5b815161157a8482602086016114c7565b91505092915050565b60008135905061159281611ee2565b92915050565b6000815190506115a781611ee2565b92915050565b600080600080600080600080610100898b0312156115ca57600080fd5b60006115d88b828c01611505565b98505060206115e98b828c01611505565b97505060406115fa8b828c01611505565b965050606061160b8b828c01611505565b955050608061161c8b828c01611505565b94505060a061162d8b828c01611583565b93505060c061163e8b828c01611583565b92505060e061164f8b828c01611583565b9150509295985092959890939650565b60006020828403121561167157600080fd5b600061167f8482850161151a565b91505092915050565b60006020828403121561169a57600080fd5b600082013567ffffffffffffffff8111156116b457600080fd5b6116c08482850161152f565b91505092915050565b6000602082840312156116db57600080fd5b600082015167ffffffffffffffff8111156116f557600080fd5b61170184828501611559565b91505092915050565b6000806040838503121561171d57600080fd5b600083013567ffffffffffffffff81111561173757600080fd5b6117438582860161152f565b925050602061175485828601611583565b9150509250929050565b60006020828403121561177057600080fd5b600061177e84828501611583565b91505092915050565b60006020828403121561179957600080fd5b60006117a784828501611598565b91505092915050565b60006117bc8383611866565b905092915050565b6117cd81611e05565b82525050565b6117dc81611dae565b82525050565b6117eb81611dae565b82525050565b60006117fc82611d37565b6118068185611d65565b93508360208202850161181885611d27565b8060005b85811015611854578484038952815161183585826117b0565b945061184083611d58565b925060208a0199505060018101905061181c565b50829750879550505050505092915050565b600061187182611d42565b61187b8185611d76565b935061188b818560208601611e6e565b61189481611ea3565b840191505092915050565b60006118aa82611d42565b6118b48185611d87565b93506118c4818560208601611e6e565b80840191505092915050565b6118d981611e17565b82525050565b60006118ea82611d4d565b6118f48185611d92565b9350611904818560208601611e6e565b61190d81611ea3565b840191505092915050565b600061192382611d4d565b61192d8185611da3565b935061193d818560208601611e6e565b80840191505092915050565b6000611956600483611da3565b91507f57455448000000000000000000000000000000000000000000000000000000006000830152600482019050919050565b6000611996600483611da3565b91507f4c494e4b000000000000000000000000000000000000000000000000000000006000830152600482019050919050565b60006119d6600383611da3565b91507f44414900000000000000000000000000000000000000000000000000000000006000830152600382019050919050565b61010082016000820151611a2060008501826117d3565b506020820151611a3360208501826117d3565b506040820151611a466040850182611aba565b506060820151611a5960608501826117d3565b506080820151611a6c6080850182611ad8565b5060a0820151611a7f60a0850182611ad8565b5060c0820151611a9260c0850182611ad8565b5060e0820151611aa560e0850182611aab565b50505050565b611ab481611dcc565b82525050565b611ac381611dec565b82525050565b611ad281611dec565b82525050565b611ae181611dfb565b82525050565b611af081611dfb565b82525050565b6000611b02828461189f565b915081905092915050565b6000611b198284611918565b915081905092915050565b6000611b2f82611949565b9150819050919050565b6000611b4482611989565b9150819050919050565b6000611b59826119c9565b9150819050919050565b6000602082019050611b7860008301846117e2565b92915050565b6000606082019050611b9360008301866117c4565b611ba060208301856117e2565b611bad6040830184611ae7565b949350505050565b6000604082019050611bca60008301856117e2565b611bd76020830184611ae7565b9392505050565b60006020820190508181036000830152611bf881846117f1565b905092915050565b6000602082019050611c1560008301846118d0565b92915050565b60006020820190508181036000830152611c3581846118df565b905092915050565b600061010082019050611c536000830184611a09565b92915050565b6000602082019050611c6e6000830184611ac9565b92915050565b6000602082019050611c896000830184611ae7565b92915050565b6000606082019050611ca46000830186611ae7565b611cb16020830185611ae7565b611cbe6040830184611ae7565b949350505050565b6000604051905081810181811067ffffffffffffffff82111715611ced57611cec611ea1565b5b8060405250919050565b600067ffffffffffffffff821115611d1257611d11611ea1565b5b601f19601f8301169050602081019050919050565b6000819050602082019050919050565b600081519050919050565b600081519050919050565b600081519050919050565b6000602082019050919050565b600082825260208201905092915050565b600082825260208201905092915050565b600081905092915050565b600082825260208201905092915050565b600081905092915050565b6000611db982611dcc565b9050919050565b60008115159050919050565b600073ffffffffffffffffffffffffffffffffffffffff82169050919050565b600062ffffff82169050919050565b6000819050919050565b6000611e1082611e3b565b9050919050565b6000611e2282611e29565b9050919050565b6000611e3482611dcc565b9050919050565b6000611e4682611e4d565b9050919050565b6000611e5882611dcc565b9050919050565b82818337600083830152505050565b60005b83811015611e8c578082015181840152602081019050611e71565b83811115611e9b576000848401525b50505050565bfe5b6000601f19601f8301169050919050565b611ebd81611dae565b8114611ec857600080fd5b50565b611ed481611dc0565b8114611edf57600080fd5b50565b611eeb81611dfb565b8114611ef657600080fd5b5056fea2646970667358221220f0b3c1e55be18277d42e82bc33a2b0cf958e83ba59fee9c733b260a94e94a69f64736f6c63430007060033",
  "linkReferences": {},
  "deployedLinkReferences": {}
}