{
  "_format": "hh-sol-artifact-1",
  "contractName": "SwapUSDT",
  "sourceName": "contracts/SwapUSDT.sol",
  "abi": [
    {
      "inputs": [],
      "name": "DAI",
      "outputs": [
        {
          "internalType": "address",
          "name": "",
          "type": "address"
        }
      ],
      "stateMutability": "view",
      "type": "function"
    },
    {
      "inputs": [],
      "name": "LINK",
      "outputs": [
        {
          "internalType": "address",
          "name": "",
          "type": "address"
        }
      ],
      "stateMutability": "view",
      "type": "function"
    },
    {
      "inputs": [],
      "name": "USDT",
      "outputs": [
        {
          "internalType": "address",
          "name": "",
          "type": "address"
        }
      ],
      "stateMutability": "view",
      "type": "function"
    },
    {
      "inputs": [],
      "name": "WBTC",
      "outputs": [
        {
          "internalType": "address",
          "name": "",
          "type": "address"
        }
      ],
      "stateMutability": "view",
      "type": "function"
    },
    {
      "inputs": [],
      "name": "WETH9",
      "outputs": [
        {
          "internalType": "address",
          "name": "",
          "type": "address"
        }
      ],
      "stateMutability": "view",
      "type": "function"
    },
    {
      "inputs": [
        {
          "internalType": "string",
          "name": "tokenid",
          "type": "string"
        },
        {
          "internalType": "uint256",
          "name": "amoountIn",
          "type": "uint256"
        }
      ],
      "name": "fetchPercentSwap",
      "outputs": [
        {
          "internalType": "uint256",
          "name": "",
          "type": "uint256"
        }
      ],
      "stateMutability": "view",
      "type": "function"
    },
    {
      "inputs": [
        {
          "internalType": "address",
          "name": "routeraddr",
          "type": "address"
        },
        {
          "internalType": "address",
          "name": "dai",
          "type": "address"
        },
        {
          "internalType": "address",
          "name": "weth",
          "type": "address"
        },
        {
          "internalType": "address",
          "name": "wbtc",
          "type": "address"
        },
        {
          "internalType": "address",
          "name": "link",
          "type": "address"
        },
        {
          "internalType": "address",
          "name": "usdt",
          "type": "address"
        },
        {
          "internalType": "uint256",
          "name": "daipercent",
          "type": "uint256"
        },
        {
          "internalType": "uint256",
          "name": "wethpercent",
          "type": "uint256"
        },
        {
          "internalType": "uint256",
          "name": "wtbcpercent",
          "type": "uint256"
        },
        {
          "internalType": "uint256",
          "name": "linkpercent",
          "type": "uint256"
        }
      ],
      "name": "initVars",
      "outputs": [],
      "stateMutability": "nonpayable",
      "type": "function"
    },
    {
      "inputs": [],
      "name": "poolFee",
      "outputs": [
        {
          "internalType": "uint24",
          "name": "",
          "type": "uint24"
        }
      ],
      "stateMutability": "view",
      "type": "function"
    },
    {
      "inputs": [],
      "name": "routerAddress",
      "outputs": [
        {
          "internalType": "address",
          "name": "",
          "type": "address"
        }
      ],
      "stateMutability": "view",
      "type": "function"
    },
    {
      "inputs": [
        {
          "internalType": "uint256",
          "name": "wbtcamt",
          "type": "uint256"
        },
        {
          "internalType": "uint256",
          "name": "linkamt",
          "type": "uint256"
        },
        {
          "internalType": "uint256",
          "name": "wethamt",
          "type": "uint256"
        },
        {
          "internalType": "uint256",
          "name": "daiamt",
          "type": "uint256"
        }
      ],
      "name": "swap",
      "outputs": [
        {
          "internalType": "bytes[]",
          "name": "results",
          "type": "bytes[]"
        }
      ],
      "stateMutability": "payable",
      "type": "function"
    },
    {
      "inputs": [],
      "name": "swapRouter",
      "outputs": [
        {
          "internalType": "contract ISwapRouter",
          "name": "",
          "type": "address"
        }
      ],
      "stateMutability": "view",
      "type": "function"
    },
    {
      "inputs": [
        {
          "internalType": "uint256",
          "name": "amountIn",
          "type": "uint256"
        },
        {
          "internalType": "bool",
          "name": "isSwappedValue",
          "type": "bool"
        }
      ],
      "name": "swapToDai",
      "outputs": [],
      "stateMutability": "nonpayable",
      "type": "function"
    },
    {
      "inputs": [
        {
          "internalType": "uint256",
          "name": "amountIn",
          "type": "uint256"
        },
        {
          "internalType": "bool",
          "name": "isSwappedValue",
          "type": "bool"
        }
      ],
      "name": "swapToWETH9",
      "outputs": [],
      "stateMutability": "nonpayable",
      "type": "function"
    },
    {
      "inputs": [
        {
          "internalType": "uint256",
          "name": "amountIn",
          "type": "uint256"
        },
        {
          "internalType": "bool",
          "name": "isSwappedValue",
          "type": "bool"
        }
      ],
      "name": "swaptoLink",
      "outputs": [],
      "stateMutability": "nonpayable",
      "type": "function"
    },
    {
      "inputs": [
        {
          "internalType": "uint256",
          "name": "amountIn",
          "type": "uint256"
        },
        {
          "internalType": "bool",
          "name": "isSwappedValue",
          "type": "bool"
        }
      ],
      "name": "swaptoWTBC",
      "outputs": [],
      "stateMutability": "nonpayable",
      "type": "function"
    },
    {
      "inputs": [
        {
          "internalType": "string",
          "name": "",
          "type": "string"
        }
      ],
      "name": "tokenBucket",
      "outputs": [
        {
          "internalType": "uint256",
          "name": "",
          "type": "uint256"
        }
      ],
      "stateMutability": "view",
      "type": "function"
    }
  ],
  "bytecode": "0x608060405234801561001057600080fd5b50613289806100206000396000f3fe6080604052600436106100f35760003560e01c80635efda86c1161008a578063cfc710bd11610059578063cfc710bd14610321578063d382e0d31461034a578063e0bab4c414610373578063ed607a5d1461039e576100f3565b80635efda86c146102655780636dc9935b1461028e578063c31c9c07146102cb578063c54e44eb146102f6576100f3565b806338315cd2116100c657806338315cd2146101b65780634aa4a4fc146101df5780634dede3de1461020a5780635673b02d14610235576100f3565b8063089fe6aa146100f85780631683587c146101235780631b6b6d23146101605780633268cc561461018b575b600080fd5b34801561010457600080fd5b5061010d6103c7565b60405161011a9190612fc1565b60405180910390f35b34801561012f57600080fd5b5061014a60048036038101906101459190612998565b6103cd565b6040516101579190612fdc565b60405180910390f35b34801561016c57600080fd5b50610175610407565b6040516101829190612ecb565b60405180910390f35b34801561019757600080fd5b506101a061042d565b6040516101ad9190612ecb565b60405180910390f35b3480156101c257600080fd5b506101dd60048036038101906101d89190612a15565b610453565b005b3480156101eb57600080fd5b506101f4610ada565b6040516102019190612ecb565b60405180910390f35b34801561021657600080fd5b5061021f610b00565b60405161022c9190612ecb565b60405180910390f35b61024f600480360381019061024a9190612a51565b610b26565b60405161025c9190612f46565b60405180910390f35b34801561027157600080fd5b5061028c60048036038101906102879190612a15565b61102b565b005b34801561029a57600080fd5b506102b560048036038101906102b09190612916565b6116b2565b6040516102c29190612fdc565b60405180910390f35b3480156102d757600080fd5b506102e06116e0565b6040516102ed9190612f68565b60405180910390f35b34801561030257600080fd5b5061030b611706565b6040516103189190612ecb565b60405180910390f35b34801561032d57600080fd5b5061034860048036038101906103439190612812565b61172c565b005b34801561035657600080fd5b50610371600480360381019061036c9190612a15565b6119a5565b005b34801561037f57600080fd5b5061038861202c565b6040516103959190612ecb565b60405180910390f35b3480156103aa57600080fd5b506103c560048036038101906103c09190612a15565b612052565b005b610bb881565b6000806000846040516103e09190612e60565b90815260200160405180910390205490506064818402816103fd57fe5b0491505092915050565b600760009054906101000a900473ffffffffffffffffffffffffffffffffffffffff1681565b600160009054906101000a900473ffffffffffffffffffffffffffffffffffffffff1681565b60011515811515141561077b57600560009054906101000a900473ffffffffffffffffffffffffffffffffffffffff1673ffffffffffffffffffffffffffffffffffffffff166323b872dd3330856040518463ffffffff1660e01b81526004016104bf93929190612ee6565b602060405180830381600087803b1580156104d957600080fd5b505af11580156104ed573d6000803e3d6000fd5b505050506040513d601f19601f8201168201806040525081019061051191906128ed565b50600560009054906101000a900473ffffffffffffffffffffffffffffffffffffffff1673ffffffffffffffffffffffffffffffffffffffff1663095ea7b3600260009054906101000a900473ffffffffffffffffffffffffffffffffffffffff16846040518363ffffffff1660e01b8152600401610591929190612f1d565b602060405180830381600087803b1580156105ab57600080fd5b505af11580156105bf573d6000803e3d6000fd5b505050506040513d601f19601f820116820180604052508101906105e391906128ed565b506000604051806101000160405280600560009054906101000a900473ffffffffffffffffffffffffffffffffffffffff1673ffffffffffffffffffffffffffffffffffffffff168152602001600360009054906101000a900473ffffffffffffffffffffffffffffffffffffffff1673ffffffffffffffffffffffffffffffffffffffff168152602001610bb862ffffff1681526020013373ffffffffffffffffffffffffffffffffffffffff16815260200142815260200184815260200160008152602001600073ffffffffffffffffffffffffffffffffffffffff168152509050600260009054906101000a900473ffffffffffffffffffffffffffffffffffffffff1673ffffffffffffffffffffffffffffffffffffffff1663414bf389826040518263ffffffff1660e01b81526004016107229190612fa5565b602060405180830381600087803b15801561073c57600080fd5b505af1158015610750573d6000803e3d6000fd5b505050506040513d601f19601f8201168201806040525081019061077491906129ec565b5050610ad6565b60006107bc6040518060400160405280600381526020017f4441490000000000000000000000000000000000000000000000000000000000815250846103cd565b9050600560009054906101000a900473ffffffffffffffffffffffffffffffffffffffff1673ffffffffffffffffffffffffffffffffffffffff166323b872dd3330846040518463ffffffff1660e01b815260040161081d93929190612ee6565b602060405180830381600087803b15801561083757600080fd5b505af115801561084b573d6000803e3d6000fd5b505050506040513d601f19601f8201168201806040525081019061086f91906128ed565b50600560009054906101000a900473ffffffffffffffffffffffffffffffffffffffff1673ffffffffffffffffffffffffffffffffffffffff1663095ea7b3600260009054906101000a900473ffffffffffffffffffffffffffffffffffffffff16836040518363ffffffff1660e01b81526004016108ef929190612f1d565b602060405180830381600087803b15801561090957600080fd5b505af115801561091d573d6000803e3d6000fd5b505050506040513d601f19601f8201168201806040525081019061094191906128ed565b506000604051806101000160405280600560009054906101000a900473ffffffffffffffffffffffffffffffffffffffff1673ffffffffffffffffffffffffffffffffffffffff168152602001600360009054906101000a900473ffffffffffffffffffffffffffffffffffffffff1673ffffffffffffffffffffffffffffffffffffffff168152602001610bb862ffffff1681526020013373ffffffffffffffffffffffffffffffffffffffff16815260200142815260200183815260200160008152602001600073ffffffffffffffffffffffffffffffffffffffff168152509050600260009054906101000a900473ffffffffffffffffffffffffffffffffffffffff1673ffffffffffffffffffffffffffffffffffffffff1663414bf389826040518263ffffffff1660e01b8152600401610a809190612fa5565b602060405180830381600087803b158015610a9a57600080fd5b505af1158015610aae573d6000803e3d6000fd5b505050506040513d601f19601f82011682018060405250810190610ad291906129ec565b5050505b5050565b600460009054906101000a900473ffffffffffffffffffffffffffffffffffffffff1681565b600660009054906101000a900473ffffffffffffffffffffffffffffffffffffffff1681565b60606000600467ffffffffffffffff81118015610b4257600080fd5b50604051908082528060200260200182016040528015610b7657816020015b6060815260200190600190039081610b615790505b5090506338315cd260e01b610bc06040518060400160405280600381526020017f4441490000000000000000000000000000000000000000000000000000000000815250856103cd565b6001604051602401610bd3929190612ff7565b604051602081830303815290604052907bffffffffffffffffffffffffffffffffffffffffffffffffffffffff19166020820180517bffffffffffffffffffffffffffffffffffffffffffffffffffffffff838183161783525050505081600081518110610c3d57fe5b6020026020010181905250635efda86c60e01b610c8f6040518060400160405280600481526020017f5745544800000000000000000000000000000000000000000000000000000000815250866103cd565b6001604051602401610ca2929190612ff7565b604051602081830303815290604052907bffffffffffffffffffffffffffffffffffffffffffffffffffffffff19166020820180517bffffffffffffffffffffffffffffffffffffffffffffffffffffffff838183161783525050505081600181518110610d0c57fe5b602002602001018190525063ed607a5d60e01b610d5e6040518060400160405280600481526020017f5742544300000000000000000000000000000000000000000000000000000000815250886103cd565b6001604051602401610d71929190612ff7565b604051602081830303815290604052907bffffffffffffffffffffffffffffffffffffffffffffffffffffffff19166020820180517bffffffffffffffffffffffffffffffffffffffffffffffffffffffff838183161783525050505081600281518110610ddb57fe5b602002602001018190525063d382e0d360e01b610e2d6040518060400160405280600481526020017f4c494e4b00000000000000000000000000000000000000000000000000000000815250876103cd565b6001604051602401610e40929190612ff7565b604051602081830303815290604052907bffffffffffffffffffffffffffffffffffffffffffffffffffffffff19166020820180517bffffffffffffffffffffffffffffffffffffffffffffffffffffffff838183161783525050505081600381518110610eaa57fe5b6020026020010181905250805167ffffffffffffffff81118015610ecd57600080fd5b50604051908082528060200260200182016040528015610f0157816020015b6060815260200190600190039081610eec5790505b50915060005b8151811015611021576000803073ffffffffffffffffffffffffffffffffffffffff16848481518110610f3657fe5b6020026020010151604051610f4b9190612e49565b600060405180830381855af49150503d8060008114610f86576040519150601f19603f3d011682016040523d82523d6000602084013e610f8b565b606091505b509150915081610ffa57604481511015610fa457600080fd5b60048101905080806020019051810190610fbe9190612957565b6040517f08c379a0000000000000000000000000000000000000000000000000000000008152600401610ff19190612f83565b60405180910390fd5b8085848151811061100757fe5b602002602001018190525050508080600101915050610f07565b5050949350505050565b60011515811515141561135357600560009054906101000a900473ffffffffffffffffffffffffffffffffffffffff1673ffffffffffffffffffffffffffffffffffffffff166323b872dd3330856040518463ffffffff1660e01b815260040161109793929190612ee6565b602060405180830381600087803b1580156110b157600080fd5b505af11580156110c5573d6000803e3d6000fd5b505050506040513d601f19601f820116820180604052508101906110e991906128ed565b50600560009054906101000a900473ffffffffffffffffffffffffffffffffffffffff1673ffffffffffffffffffffffffffffffffffffffff1663095ea7b3600260009054906101000a900473ffffffffffffffffffffffffffffffffffffffff16846040518363ffffffff1660e01b8152600401611169929190612f1d565b602060405180830381600087803b15801561118357600080fd5b505af1158015611197573d6000803e3d6000fd5b505050506040513d601f19601f820116820180604052508101906111bb91906128ed565b506000604051806101000160405280600560009054906101000a900473ffffffffffffffffffffffffffffffffffffffff1673ffffffffffffffffffffffffffffffffffffffff168152602001600460009054906101000a900473ffffffffffffffffffffffffffffffffffffffff1673ffffffffffffffffffffffffffffffffffffffff168152602001610bb862ffffff1681526020013373ffffffffffffffffffffffffffffffffffffffff16815260200142815260200184815260200160008152602001600073ffffffffffffffffffffffffffffffffffffffff168152509050600260009054906101000a900473ffffffffffffffffffffffffffffffffffffffff1673ffffffffffffffffffffffffffffffffffffffff1663414bf389826040518263ffffffff1660e01b81526004016112fa9190612fa5565b602060405180830381600087803b15801561131457600080fd5b505af1158015611328573d6000803e3d6000fd5b505050506040513d601f19601f8201168201806040525081019061134c91906129ec565b50506116ae565b60006113946040518060400160405280600481526020017f5745544800000000000000000000000000000000000000000000000000000000815250846103cd565b9050600560009054906101000a900473ffffffffffffffffffffffffffffffffffffffff1673ffffffffffffffffffffffffffffffffffffffff166323b872dd3330846040518463ffffffff1660e01b81526004016113f593929190612ee6565b602060405180830381600087803b15801561140f57600080fd5b505af1158015611423573d6000803e3d6000fd5b505050506040513d601f19601f8201168201806040525081019061144791906128ed565b50600560009054906101000a900473ffffffffffffffffffffffffffffffffffffffff1673ffffffffffffffffffffffffffffffffffffffff1663095ea7b3600260009054906101000a900473ffffffffffffffffffffffffffffffffffffffff16836040518363ffffffff1660e01b81526004016114c7929190612f1d565b602060405180830381600087803b1580156114e157600080fd5b505af11580156114f5573d6000803e3d6000fd5b505050506040513d601f19601f8201168201806040525081019061151991906128ed565b506000604051806101000160405280600560009054906101000a900473ffffffffffffffffffffffffffffffffffffffff1673ffffffffffffffffffffffffffffffffffffffff168152602001600460009054906101000a900473ffffffffffffffffffffffffffffffffffffffff1673ffffffffffffffffffffffffffffffffffffffff168152602001610bb862ffffff1681526020013373ffffffffffffffffffffffffffffffffffffffff16815260200142815260200183815260200160008152602001600073ffffffffffffffffffffffffffffffffffffffff168152509050600260009054906101000a900473ffffffffffffffffffffffffffffffffffffffff1673ffffffffffffffffffffffffffffffffffffffff1663414bf389826040518263ffffffff1660e01b81526004016116589190612fa5565b602060405180830381600087803b15801561167257600080fd5b505af1158015611686573d6000803e3d6000fd5b505050506040513d601f19601f820116820180604052508101906116aa91906129ec565b5050505b5050565b6000818051602081018201805184825260208301602085012081835280955050505050506000915090505481565b600260009054906101000a900473ffffffffffffffffffffffffffffffffffffffff1681565b600560009054906101000a900473ffffffffffffffffffffffffffffffffffffffff1681565b89600160006101000a81548173ffffffffffffffffffffffffffffffffffffffff021916908373ffffffffffffffffffffffffffffffffffffffff160217905550600160009054906101000a900473ffffffffffffffffffffffffffffffffffffffff16600260006101000a81548173ffffffffffffffffffffffffffffffffffffffff021916908373ffffffffffffffffffffffffffffffffffffffff16021790555088600360006101000a81548173ffffffffffffffffffffffffffffffffffffffff021916908373ffffffffffffffffffffffffffffffffffffffff16021790555087600460006101000a81548173ffffffffffffffffffffffffffffffffffffffff021916908373ffffffffffffffffffffffffffffffffffffffff16021790555086600660006101000a81548173ffffffffffffffffffffffffffffffffffffffff021916908373ffffffffffffffffffffffffffffffffffffffff16021790555085600760006101000a81548173ffffffffffffffffffffffffffffffffffffffff021916908373ffffffffffffffffffffffffffffffffffffffff16021790555084600560006101000a81548173ffffffffffffffffffffffffffffffffffffffff021916908373ffffffffffffffffffffffffffffffffffffffff16021790555083600060405161192490612eb6565b90815260200160405180910390208190555082600060405161194590612e77565b90815260200160405180910390208190555081600060405161196690612ea1565b90815260200160405180910390208190555080600060405161198790612e8c565b90815260200160405180910390208190555050505050505050505050565b600115158115151415611ccd57600560009054906101000a900473ffffffffffffffffffffffffffffffffffffffff1673ffffffffffffffffffffffffffffffffffffffff166323b872dd3330856040518463ffffffff1660e01b8152600401611a1193929190612ee6565b602060405180830381600087803b158015611a2b57600080fd5b505af1158015611a3f573d6000803e3d6000fd5b505050506040513d601f19601f82011682018060405250810190611a6391906128ed565b50600560009054906101000a900473ffffffffffffffffffffffffffffffffffffffff1673ffffffffffffffffffffffffffffffffffffffff1663095ea7b3600260009054906101000a900473ffffffffffffffffffffffffffffffffffffffff16846040518363ffffffff1660e01b8152600401611ae3929190612f1d565b602060405180830381600087803b158015611afd57600080fd5b505af1158015611b11573d6000803e3d6000fd5b505050506040513d601f19601f82011682018060405250810190611b3591906128ed565b506000604051806101000160405280600560009054906101000a900473ffffffffffffffffffffffffffffffffffffffff1673ffffffffffffffffffffffffffffffffffffffff168152602001600760009054906101000a900473ffffffffffffffffffffffffffffffffffffffff1673ffffffffffffffffffffffffffffffffffffffff168152602001610bb862ffffff1681526020013373ffffffffffffffffffffffffffffffffffffffff16815260200142815260200184815260200160008152602001600073ffffffffffffffffffffffffffffffffffffffff168152509050600260009054906101000a900473ffffffffffffffffffffffffffffffffffffffff1673ffffffffffffffffffffffffffffffffffffffff1663414bf389826040518263ffffffff1660e01b8152600401611c749190612fa5565b602060405180830381600087803b158015611c8e57600080fd5b505af1158015611ca2573d6000803e3d6000fd5b505050506040513d601f19601f82011682018060405250810190611cc691906129ec565b5050612028565b6000611d0e6040518060400160405280600481526020017f4c494e4b00000000000000000000000000000000000000000000000000000000815250846103cd565b9050600560009054906101000a900473ffffffffffffffffffffffffffffffffffffffff1673ffffffffffffffffffffffffffffffffffffffff166323b872dd3330846040518463ffffffff1660e01b8152600401611d6f93929190612ee6565b602060405180830381600087803b158015611d8957600080fd5b505af1158015611d9d573d6000803e3d6000fd5b505050506040513d601f19601f82011682018060405250810190611dc191906128ed565b50600560009054906101000a900473ffffffffffffffffffffffffffffffffffffffff1673ffffffffffffffffffffffffffffffffffffffff1663095ea7b3600260009054906101000a900473ffffffffffffffffffffffffffffffffffffffff16836040518363ffffffff1660e01b8152600401611e41929190612f1d565b602060405180830381600087803b158015611e5b57600080fd5b505af1158015611e6f573d6000803e3d6000fd5b505050506040513d601f19601f82011682018060405250810190611e9391906128ed565b506000604051806101000160405280600560009054906101000a900473ffffffffffffffffffffffffffffffffffffffff1673ffffffffffffffffffffffffffffffffffffffff168152602001600760009054906101000a900473ffffffffffffffffffffffffffffffffffffffff1673ffffffffffffffffffffffffffffffffffffffff168152602001610bb862ffffff1681526020013373ffffffffffffffffffffffffffffffffffffffff16815260200142815260200183815260200160008152602001600073ffffffffffffffffffffffffffffffffffffffff168152509050600260009054906101000a900473ffffffffffffffffffffffffffffffffffffffff1673ffffffffffffffffffffffffffffffffffffffff1663414bf389826040518263ffffffff1660e01b8152600401611fd29190612fa5565b602060405180830381600087803b158015611fec57600080fd5b505af1158015612000573d6000803e3d6000fd5b505050506040513d601f19601f8201168201806040525081019061202491906129ec565b5050505b5050565b600360009054906101000a900473ffffffffffffffffffffffffffffffffffffffff1681565b60011515811515141561237a57600560009054906101000a900473ffffffffffffffffffffffffffffffffffffffff1673ffffffffffffffffffffffffffffffffffffffff166323b872dd3330856040518463ffffffff1660e01b81526004016120be93929190612ee6565b602060405180830381600087803b1580156120d857600080fd5b505af11580156120ec573d6000803e3d6000fd5b505050506040513d601f19601f8201168201806040525081019061211091906128ed565b50600560009054906101000a900473ffffffffffffffffffffffffffffffffffffffff1673ffffffffffffffffffffffffffffffffffffffff1663095ea7b3600260009054906101000a900473ffffffffffffffffffffffffffffffffffffffff16846040518363ffffffff1660e01b8152600401612190929190612f1d565b602060405180830381600087803b1580156121aa57600080fd5b505af11580156121be573d6000803e3d6000fd5b505050506040513d601f19601f820116820180604052508101906121e291906128ed565b506000604051806101000160405280600560009054906101000a900473ffffffffffffffffffffffffffffffffffffffff1673ffffffffffffffffffffffffffffffffffffffff168152602001600660009054906101000a900473ffffffffffffffffffffffffffffffffffffffff1673ffffffffffffffffffffffffffffffffffffffff168152602001610bb862ffffff1681526020013373ffffffffffffffffffffffffffffffffffffffff16815260200142815260200184815260200160008152602001600073ffffffffffffffffffffffffffffffffffffffff168152509050600260009054906101000a900473ffffffffffffffffffffffffffffffffffffffff1673ffffffffffffffffffffffffffffffffffffffff1663414bf389826040518263ffffffff1660e01b81526004016123219190612fa5565b602060405180830381600087803b15801561233b57600080fd5b505af115801561234f573d6000803e3d6000fd5b505050506040513d601f19601f8201168201806040525081019061237391906129ec565b50506126d5565b60006123bb6040518060400160405280600481526020017f5742544300000000000000000000000000000000000000000000000000000000815250846103cd565b9050600560009054906101000a900473ffffffffffffffffffffffffffffffffffffffff1673ffffffffffffffffffffffffffffffffffffffff166323b872dd3330846040518463ffffffff1660e01b815260040161241c93929190612ee6565b602060405180830381600087803b15801561243657600080fd5b505af115801561244a573d6000803e3d6000fd5b505050506040513d601f19601f8201168201806040525081019061246e91906128ed565b50600560009054906101000a900473ffffffffffffffffffffffffffffffffffffffff1673ffffffffffffffffffffffffffffffffffffffff1663095ea7b3600260009054906101000a900473ffffffffffffffffffffffffffffffffffffffff16836040518363ffffffff1660e01b81526004016124ee929190612f1d565b602060405180830381600087803b15801561250857600080fd5b505af115801561251c573d6000803e3d6000fd5b505050506040513d601f19601f8201168201806040525081019061254091906128ed565b506000604051806101000160405280600560009054906101000a900473ffffffffffffffffffffffffffffffffffffffff1673ffffffffffffffffffffffffffffffffffffffff168152602001600660009054906101000a900473ffffffffffffffffffffffffffffffffffffffff1673ffffffffffffffffffffffffffffffffffffffff168152602001610bb862ffffff1681526020013373ffffffffffffffffffffffffffffffffffffffff16815260200142815260200183815260200160008152602001600073ffffffffffffffffffffffffffffffffffffffff168152509050600260009054906101000a900473ffffffffffffffffffffffffffffffffffffffff1673ffffffffffffffffffffffffffffffffffffffff1663414bf389826040518263ffffffff1660e01b815260040161267f9190612fa5565b602060405180830381600087803b15801561269957600080fd5b505af11580156126ad573d6000803e3d6000fd5b505050506040513d601f19601f820116820180604052508101906126d191906129ec565b5050505b5050565b60006126ec6126e784613051565b613020565b90508281526020810184848401111561270457600080fd5b61270f8482856131b9565b509392505050565b600061272a61272584613051565b613020565b90508281526020810184848401111561274257600080fd5b61274d8482856131c8565b509392505050565b6000813590506127648161320e565b92915050565b60008135905061277981613225565b92915050565b60008151905061278e81613225565b92915050565b600082601f8301126127a557600080fd5b81356127b58482602086016126d9565b91505092915050565b600082601f8301126127cf57600080fd5b81516127df848260208601612717565b91505092915050565b6000813590506127f78161323c565b92915050565b60008151905061280c8161323c565b92915050565b6000806000806000806000806000806101408b8d03121561283257600080fd5b60006128408d828e01612755565b9a505060206128518d828e01612755565b99505060406128628d828e01612755565b98505060606128738d828e01612755565b97505060806128848d828e01612755565b96505060a06128958d828e01612755565b95505060c06128a68d828e016127e8565b94505060e06128b78d828e016127e8565b9350506101006128c98d828e016127e8565b9250506101206128db8d828e016127e8565b9150509295989b9194979a5092959850565b6000602082840312156128ff57600080fd5b600061290d8482850161277f565b91505092915050565b60006020828403121561292857600080fd5b600082013567ffffffffffffffff81111561294257600080fd5b61294e84828501612794565b91505092915050565b60006020828403121561296957600080fd5b600082015167ffffffffffffffff81111561298357600080fd5b61298f848285016127be565b91505092915050565b600080604083850312156129ab57600080fd5b600083013567ffffffffffffffff8111156129c557600080fd5b6129d185828601612794565b92505060206129e2858286016127e8565b9150509250929050565b6000602082840312156129fe57600080fd5b6000612a0c848285016127fd565b91505092915050565b60008060408385031215612a2857600080fd5b6000612a36858286016127e8565b9250506020612a478582860161276a565b9150509250929050565b60008060008060808587031215612a6757600080fd5b6000612a75878288016127e8565b9450506020612a86878288016127e8565b9350506040612a97878288016127e8565b9250506060612aa8878288016127e8565b91505092959194509250565b6000612ac08383612b79565b905092915050565b612ad18161315f565b82525050565b612ae081613108565b82525050565b612aef81613108565b82525050565b6000612b0082613091565b612b0a81856130bf565b935083602082028501612b1c85613081565b8060005b85811015612b585784840389528151612b398582612ab4565b9450612b44836130b2565b925060208a01995050600181019050612b20565b50829750879550505050505092915050565b612b738161311a565b82525050565b6000612b848261309c565b612b8e81856130d0565b9350612b9e8185602086016131c8565b612ba7816131fd565b840191505092915050565b6000612bbd8261309c565b612bc781856130e1565b9350612bd78185602086016131c8565b80840191505092915050565b612bec81613171565b82525050565b6000612bfd826130a7565b612c0781856130ec565b9350612c178185602086016131c8565b612c20816131fd565b840191505092915050565b6000612c36826130a7565b612c4081856130fd565b9350612c508185602086016131c8565b80840191505092915050565b6000612c696004836130fd565b91507f57455448000000000000000000000000000000000000000000000000000000006000830152600482019050919050565b6000612ca96004836130fd565b91507f4c494e4b000000000000000000000000000000000000000000000000000000006000830152600482019050919050565b6000612ce96004836130fd565b91507f57425443000000000000000000000000000000000000000000000000000000006000830152600482019050919050565b6000612d296003836130fd565b91507f44414900000000000000000000000000000000000000000000000000000000006000830152600382019050919050565b61010082016000820151612d736000850182612ad7565b506020820151612d866020850182612ad7565b506040820151612d996040850182612e0d565b506060820151612dac6060850182612ad7565b506080820151612dbf6080850182612e2b565b5060a0820151612dd260a0850182612e2b565b5060c0820151612de560c0850182612e2b565b5060e0820151612df860e0850182612dfe565b50505050565b612e0781613126565b82525050565b612e1681613146565b82525050565b612e2581613146565b82525050565b612e3481613155565b82525050565b612e4381613155565b82525050565b6000612e558284612bb2565b915081905092915050565b6000612e6c8284612c2b565b915081905092915050565b6000612e8282612c5c565b9150819050919050565b6000612e9782612c9c565b9150819050919050565b6000612eac82612cdc565b9150819050919050565b6000612ec182612d1c565b9150819050919050565b6000602082019050612ee06000830184612ae6565b92915050565b6000606082019050612efb6000830186612ac8565b612f086020830185612ae6565b612f156040830184612e3a565b949350505050565b6000604082019050612f326000830185612ae6565b612f3f6020830184612e3a565b9392505050565b60006020820190508181036000830152612f608184612af5565b905092915050565b6000602082019050612f7d6000830184612be3565b92915050565b60006020820190508181036000830152612f9d8184612bf2565b905092915050565b600061010082019050612fbb6000830184612d5c565b92915050565b6000602082019050612fd66000830184612e1c565b92915050565b6000602082019050612ff16000830184612e3a565b92915050565b600060408201905061300c6000830185612e3a565b6130196020830184612b6a565b9392505050565b6000604051905081810181811067ffffffffffffffff82111715613047576130466131fb565b5b8060405250919050565b600067ffffffffffffffff82111561306c5761306b6131fb565b5b601f19601f8301169050602081019050919050565b6000819050602082019050919050565b600081519050919050565b600081519050919050565b600081519050919050565b6000602082019050919050565b600082825260208201905092915050565b600082825260208201905092915050565b600081905092915050565b600082825260208201905092915050565b600081905092915050565b600061311382613126565b9050919050565b60008115159050919050565b600073ffffffffffffffffffffffffffffffffffffffff82169050919050565b600062ffffff82169050919050565b6000819050919050565b600061316a82613195565b9050919050565b600061317c82613183565b9050919050565b600061318e82613126565b9050919050565b60006131a0826131a7565b9050919050565b60006131b282613126565b9050919050565b82818337600083830152505050565b60005b838110156131e65780820151818401526020810190506131cb565b838111156131f5576000848401525b50505050565bfe5b6000601f19601f8301169050919050565b61321781613108565b811461322257600080fd5b50565b61322e8161311a565b811461323957600080fd5b50565b61324581613155565b811461325057600080fd5b5056fea2646970667358221220fb5fa35083effedbbd3d73aa1ef70d33dc2802a1e4db7583c38babe81335c92464736f6c63430007060033",
  "linkReferences": {},
  "deployedLinkReferences": {}
}