{
  "_format": "hh-sol-artifact-1",
  "contractName": "SwapCustomERC20",
  "sourceName": "contracts/SwapCustomERC20.sol",
  "abi": [
    {
      "inputs": [],
      "name": "DAI",
      "outputs": [
        {
          "internalType": "address",
          "name": "",
          "type": "address"
        }
      ],
      "stateMutability": "view",
      "type": "function"
    },
    {
      "inputs": [],
      "name": "LINK",
      "outputs": [
        {
          "internalType": "address",
          "name": "",
          "type": "address"
        }
      ],
      "stateMutability": "view",
      "type": "function"
    },
    {
      "inputs": [],
      "name": "TOKEN0",
      "outputs": [
        {
          "internalType": "address",
          "name": "",
          "type": "address"
        }
      ],
      "stateMutability": "view",
      "type": "function"
    },
    {
      "inputs": [],
      "name": "USDC",
      "outputs": [
        {
          "internalType": "address",
          "name": "",
          "type": "address"
        }
      ],
      "stateMutability": "view",
      "type": "function"
    },
    {
      "inputs": [],
      "name": "WETH9",
      "outputs": [
        {
          "internalType": "address",
          "name": "",
          "type": "address"
        }
      ],
      "stateMutability": "view",
      "type": "function"
    },
    {
      "inputs": [
        {
          "internalType": "string",
          "name": "tokenid",
          "type": "string"
        },
        {
          "internalType": "uint256",
          "name": "amoountIn",
          "type": "uint256"
        }
      ],
      "name": "fetchPercentSwap",
      "outputs": [
        {
          "internalType": "uint256",
          "name": "",
          "type": "uint256"
        }
      ],
      "stateMutability": "view",
      "type": "function"
    },
    {
      "inputs": [
        {
          "internalType": "address",
          "name": "routerAddr",
          "type": "address"
        },
        {
          "internalType": "address",
          "name": "dai",
          "type": "address"
        },
        {
          "internalType": "address",
          "name": "weth",
          "type": "address"
        },
        {
          "internalType": "address",
          "name": "usdc",
          "type": "address"
        },
        {
          "internalType": "address",
          "name": "link",
          "type": "address"
        },
        {
          "internalType": "address",
          "name": "erc20",
          "type": "address"
        },
        {
          "internalType": "uint256",
          "name": "daipercent",
          "type": "uint256"
        },
        {
          "internalType": "uint256",
          "name": "wethpercent",
          "type": "uint256"
        },
        {
          "internalType": "uint256",
          "name": "usdcpercent",
          "type": "uint256"
        }
      ],
      "name": "initVars",
      "outputs": [],
      "stateMutability": "nonpayable",
      "type": "function"
    },
    {
      "inputs": [],
      "name": "poolFee",
      "outputs": [
        {
          "internalType": "uint24",
          "name": "",
          "type": "uint24"
        }
      ],
      "stateMutability": "view",
      "type": "function"
    },
    {
      "inputs": [],
      "name": "routerAddress",
      "outputs": [
        {
          "internalType": "address",
          "name": "",
          "type": "address"
        }
      ],
      "stateMutability": "view",
      "type": "function"
    },
    {
      "inputs": [
        {
          "internalType": "uint256",
          "name": "usdcamt",
          "type": "uint256"
        },
        {
          "internalType": "uint256",
          "name": "wethamt",
          "type": "uint256"
        },
        {
          "internalType": "uint256",
          "name": "daiamt",
          "type": "uint256"
        }
      ],
      "name": "swap",
      "outputs": [
        {
          "internalType": "bytes[]",
          "name": "results",
          "type": "bytes[]"
        }
      ],
      "stateMutability": "payable",
      "type": "function"
    },
    {
      "inputs": [],
      "name": "swapRouter",
      "outputs": [
        {
          "internalType": "contract ISwapRouter",
          "name": "",
          "type": "address"
        }
      ],
      "stateMutability": "view",
      "type": "function"
    },
    {
      "inputs": [
        {
          "internalType": "uint256",
          "name": "amountIn",
          "type": "uint256"
        },
        {
          "internalType": "bool",
          "name": "isSwappedValue",
          "type": "bool"
        }
      ],
      "name": "swapWithDai",
      "outputs": [],
      "stateMutability": "nonpayable",
      "type": "function"
    },
    {
      "inputs": [
        {
          "internalType": "uint256",
          "name": "amountIn",
          "type": "uint256"
        },
        {
          "internalType": "bool",
          "name": "isSwappedValue",
          "type": "bool"
        }
      ],
      "name": "swapWithUSDC",
      "outputs": [],
      "stateMutability": "nonpayable",
      "type": "function"
    },
    {
      "inputs": [
        {
          "internalType": "uint256",
          "name": "amountIn",
          "type": "uint256"
        },
        {
          "internalType": "bool",
          "name": "isSwappedValue",
          "type": "bool"
        }
      ],
      "name": "swapWithWETH9",
      "outputs": [],
      "stateMutability": "nonpayable",
      "type": "function"
    },
    {
      "inputs": [
        {
          "internalType": "string",
          "name": "",
          "type": "string"
        }
      ],
      "name": "tokenBucket",
      "outputs": [
        {
          "internalType": "uint256",
          "name": "",
          "type": "uint256"
        }
      ],
      "stateMutability": "view",
      "type": "function"
    }
  ],
  "bytecode": "0x608060405234801561001057600080fd5b50612a5e806100206000396000f3fe6080604052600436106100e85760003560e01c806361e908361161008a5780639fc242ab116100595780639fc242ab146102eb578063c31c9c0714610314578063e0bab4c41461033f578063e1c88d631461036a576100e8565b806361e908361461022a5780636dc9935b1461025357806389a30271146102905780639d9892cd146102bb576100e8565b80631b6b6d23116100c65780631b6b6d231461017e5780633268cc56146101a9578063443ec74d146101d45780634aa4a4fc146101ff576100e8565b8063089fe6aa146100ed5780631683587c1461011857806319b7cffe14610155575b600080fd5b3480156100f957600080fd5b50610102610393565b60405161010f9190612796565b60405180910390f35b34801561012457600080fd5b5061013f600480360381019061013a91906121d6565b610399565b60405161014c91906127b1565b60405180910390f35b34801561016157600080fd5b5061017c60048036038101906101779190612253565b6103d3565b005b34801561018a57600080fd5b50610193610a5a565b6040516101a091906126a0565b60405180910390f35b3480156101b557600080fd5b506101be610a80565b6040516101cb91906126a0565b60405180910390f35b3480156101e057600080fd5b506101e9610aa6565b6040516101f691906126a0565b60405180910390f35b34801561020b57600080fd5b50610214610acc565b60405161022191906126a0565b60405180910390f35b34801561023657600080fd5b50610251600480360381019061024c9190612065565b610af2565b005b34801561025f57600080fd5b5061027a60048036038101906102759190612154565b610d49565b60405161028791906127b1565b60405180910390f35b34801561029c57600080fd5b506102a5610d77565b6040516102b291906126a0565b60405180910390f35b6102d560048036038101906102d0919061228f565b610d9d565b6040516102e2919061271b565b60405180910390f35b3480156102f757600080fd5b50610312600480360381019061030d9190612253565b6111d2565b005b34801561032057600080fd5b50610329611859565b604051610336919061273d565b60405180910390f35b34801561034b57600080fd5b5061035461187f565b60405161036191906126a0565b60405180910390f35b34801561037657600080fd5b50610391600480360381019061038c9190612253565b6118a5565b005b610bb881565b6000806000846040516103ac919061264a565b90815260200160405180910390205490506064818402816103c957fe5b0491505092915050565b6001151581151514156106fb57600560009054906101000a900473ffffffffffffffffffffffffffffffffffffffff1673ffffffffffffffffffffffffffffffffffffffff166323b872dd3330856040518463ffffffff1660e01b815260040161043f939291906126bb565b602060405180830381600087803b15801561045957600080fd5b505af115801561046d573d6000803e3d6000fd5b505050506040513d601f19601f82011682018060405250810190610491919061212b565b50600560009054906101000a900473ffffffffffffffffffffffffffffffffffffffff1673ffffffffffffffffffffffffffffffffffffffff1663095ea7b3600260009054906101000a900473ffffffffffffffffffffffffffffffffffffffff16846040518363ffffffff1660e01b81526004016105119291906126f2565b602060405180830381600087803b15801561052b57600080fd5b505af115801561053f573d6000803e3d6000fd5b505050506040513d601f19601f82011682018060405250810190610563919061212b565b506000604051806101000160405280600560009054906101000a900473ffffffffffffffffffffffffffffffffffffffff1673ffffffffffffffffffffffffffffffffffffffff168152602001600760009054906101000a900473ffffffffffffffffffffffffffffffffffffffff1673ffffffffffffffffffffffffffffffffffffffff168152602001610bb862ffffff1681526020013373ffffffffffffffffffffffffffffffffffffffff16815260200142815260200184815260200160008152602001600073ffffffffffffffffffffffffffffffffffffffff168152509050600260009054906101000a900473ffffffffffffffffffffffffffffffffffffffff1673ffffffffffffffffffffffffffffffffffffffff1663414bf389826040518263ffffffff1660e01b81526004016106a2919061277a565b602060405180830381600087803b1580156106bc57600080fd5b505af11580156106d0573d6000803e3d6000fd5b505050506040513d601f19601f820116820180604052508101906106f4919061222a565b5050610a56565b600061073c6040518060400160405280600481526020017f555344430000000000000000000000000000000000000000000000000000000081525084610399565b9050600560009054906101000a900473ffffffffffffffffffffffffffffffffffffffff1673ffffffffffffffffffffffffffffffffffffffff166323b872dd3330846040518463ffffffff1660e01b815260040161079d939291906126bb565b602060405180830381600087803b1580156107b757600080fd5b505af11580156107cb573d6000803e3d6000fd5b505050506040513d601f19601f820116820180604052508101906107ef919061212b565b50600560009054906101000a900473ffffffffffffffffffffffffffffffffffffffff1673ffffffffffffffffffffffffffffffffffffffff1663095ea7b3600260009054906101000a900473ffffffffffffffffffffffffffffffffffffffff16836040518363ffffffff1660e01b815260040161086f9291906126f2565b602060405180830381600087803b15801561088957600080fd5b505af115801561089d573d6000803e3d6000fd5b505050506040513d601f19601f820116820180604052508101906108c1919061212b565b506000604051806101000160405280600560009054906101000a900473ffffffffffffffffffffffffffffffffffffffff1673ffffffffffffffffffffffffffffffffffffffff168152602001600760009054906101000a900473ffffffffffffffffffffffffffffffffffffffff1673ffffffffffffffffffffffffffffffffffffffff168152602001610bb862ffffff1681526020013373ffffffffffffffffffffffffffffffffffffffff16815260200142815260200183815260200160008152602001600073ffffffffffffffffffffffffffffffffffffffff168152509050600260009054906101000a900473ffffffffffffffffffffffffffffffffffffffff1673ffffffffffffffffffffffffffffffffffffffff1663414bf389826040518263ffffffff1660e01b8152600401610a00919061277a565b602060405180830381600087803b158015610a1a57600080fd5b505af1158015610a2e573d6000803e3d6000fd5b505050506040513d601f19601f82011682018060405250810190610a52919061222a565b5050505b5050565b600660009054906101000a900473ffffffffffffffffffffffffffffffffffffffff1681565b600160009054906101000a900473ffffffffffffffffffffffffffffffffffffffff1681565b600760009054906101000a900473ffffffffffffffffffffffffffffffffffffffff1681565b600460009054906101000a900473ffffffffffffffffffffffffffffffffffffffff1681565b88600160006101000a81548173ffffffffffffffffffffffffffffffffffffffff021916908373ffffffffffffffffffffffffffffffffffffffff160217905550600160009054906101000a900473ffffffffffffffffffffffffffffffffffffffff16600260006101000a81548173ffffffffffffffffffffffffffffffffffffffff021916908373ffffffffffffffffffffffffffffffffffffffff16021790555087600360006101000a81548173ffffffffffffffffffffffffffffffffffffffff021916908373ffffffffffffffffffffffffffffffffffffffff16021790555086600460006101000a81548173ffffffffffffffffffffffffffffffffffffffff021916908373ffffffffffffffffffffffffffffffffffffffff16021790555085600560006101000a81548173ffffffffffffffffffffffffffffffffffffffff021916908373ffffffffffffffffffffffffffffffffffffffff16021790555084600660006101000a81548173ffffffffffffffffffffffffffffffffffffffff021916908373ffffffffffffffffffffffffffffffffffffffff16021790555083600760006101000a81548173ffffffffffffffffffffffffffffffffffffffff021916908373ffffffffffffffffffffffffffffffffffffffff160217905550826000604051610cea90612676565b908152602001604051809103902081905550816000604051610d0b90612661565b908152602001604051809103902081905550806000604051610d2c9061268b565b908152602001604051809103902081905550505050505050505050565b6000818051602081018201805184825260208301602085012081835280955050505050506000915090505481565b600560009054906101000a900473ffffffffffffffffffffffffffffffffffffffff1681565b60606000600367ffffffffffffffff81118015610db957600080fd5b50604051908082528060200260200182016040528015610ded57816020015b6060815260200190600190039081610dd85790505b509050639fc242ab60e01b610e376040518060400160405280600381526020017f444149000000000000000000000000000000000000000000000000000000000081525085610399565b6001604051602401610e4a9291906127cc565b604051602081830303815290604052907bffffffffffffffffffffffffffffffffffffffffffffffffffffffff19166020820180517bffffffffffffffffffffffffffffffffffffffffffffffffffffffff838183161783525050505081600081518110610eb457fe5b602002602001018190525063e1c88d6360e01b610f066040518060400160405280600481526020017f574554480000000000000000000000000000000000000000000000000000000081525086610399565b6001604051602401610f199291906127cc565b604051602081830303815290604052907bffffffffffffffffffffffffffffffffffffffffffffffffffffffff19166020820180517bffffffffffffffffffffffffffffffffffffffffffffffffffffffff838183161783525050505081600181518110610f8357fe5b60200260200101819052506319b7cffe60e01b610fd56040518060400160405280600481526020017f555344430000000000000000000000000000000000000000000000000000000081525087610399565b6001604051602401610fe89291906127cc565b604051602081830303815290604052907bffffffffffffffffffffffffffffffffffffffffffffffffffffffff19166020820180517bffffffffffffffffffffffffffffffffffffffffffffffffffffffff83818316178352505050508160028151811061105257fe5b6020026020010181905250805167ffffffffffffffff8111801561107557600080fd5b506040519080825280602002602001820160405280156110a957816020015b60608152602001906001900390816110945790505b50915060005b81518110156111c9576000803073ffffffffffffffffffffffffffffffffffffffff168484815181106110de57fe5b60200260200101516040516110f39190612633565b600060405180830381855af49150503d806000811461112e576040519150601f19603f3d011682016040523d82523d6000602084013e611133565b606091505b5091509150816111a25760448151101561114c57600080fd5b600481019050808060200190518101906111669190612195565b6040517f08c379a00000000000000000000000000000000000000000000000000000000081526004016111999190612758565b60405180910390fd5b808584815181106111af57fe5b6020026020010181905250505080806001019150506110af565b50509392505050565b6001151581151514156114fa57600360009054906101000a900473ffffffffffffffffffffffffffffffffffffffff1673ffffffffffffffffffffffffffffffffffffffff166323b872dd3330856040518463ffffffff1660e01b815260040161123e939291906126bb565b602060405180830381600087803b15801561125857600080fd5b505af115801561126c573d6000803e3d6000fd5b505050506040513d601f19601f82011682018060405250810190611290919061212b565b50600360009054906101000a900473ffffffffffffffffffffffffffffffffffffffff1673ffffffffffffffffffffffffffffffffffffffff1663095ea7b3600260009054906101000a900473ffffffffffffffffffffffffffffffffffffffff16846040518363ffffffff1660e01b81526004016113109291906126f2565b602060405180830381600087803b15801561132a57600080fd5b505af115801561133e573d6000803e3d6000fd5b505050506040513d601f19601f82011682018060405250810190611362919061212b565b506000604051806101000160405280600360009054906101000a900473ffffffffffffffffffffffffffffffffffffffff1673ffffffffffffffffffffffffffffffffffffffff168152602001600760009054906101000a900473ffffffffffffffffffffffffffffffffffffffff1673ffffffffffffffffffffffffffffffffffffffff168152602001610bb862ffffff1681526020013373ffffffffffffffffffffffffffffffffffffffff16815260200142815260200184815260200160008152602001600073ffffffffffffffffffffffffffffffffffffffff168152509050600260009054906101000a900473ffffffffffffffffffffffffffffffffffffffff1673ffffffffffffffffffffffffffffffffffffffff1663414bf389826040518263ffffffff1660e01b81526004016114a1919061277a565b602060405180830381600087803b1580156114bb57600080fd5b505af11580156114cf573d6000803e3d6000fd5b505050506040513d601f19601f820116820180604052508101906114f3919061222a565b5050611855565b600061153b6040518060400160405280600381526020017f444149000000000000000000000000000000000000000000000000000000000081525084610399565b9050600360009054906101000a900473ffffffffffffffffffffffffffffffffffffffff1673ffffffffffffffffffffffffffffffffffffffff166323b872dd3330846040518463ffffffff1660e01b815260040161159c939291906126bb565b602060405180830381600087803b1580156115b657600080fd5b505af11580156115ca573d6000803e3d6000fd5b505050506040513d601f19601f820116820180604052508101906115ee919061212b565b50600360009054906101000a900473ffffffffffffffffffffffffffffffffffffffff1673ffffffffffffffffffffffffffffffffffffffff1663095ea7b3600260009054906101000a900473ffffffffffffffffffffffffffffffffffffffff16836040518363ffffffff1660e01b815260040161166e9291906126f2565b602060405180830381600087803b15801561168857600080fd5b505af115801561169c573d6000803e3d6000fd5b505050506040513d601f19601f820116820180604052508101906116c0919061212b565b506000604051806101000160405280600360009054906101000a900473ffffffffffffffffffffffffffffffffffffffff1673ffffffffffffffffffffffffffffffffffffffff168152602001600760009054906101000a900473ffffffffffffffffffffffffffffffffffffffff1673ffffffffffffffffffffffffffffffffffffffff168152602001610bb862ffffff1681526020013373ffffffffffffffffffffffffffffffffffffffff16815260200142815260200183815260200160008152602001600073ffffffffffffffffffffffffffffffffffffffff168152509050600260009054906101000a900473ffffffffffffffffffffffffffffffffffffffff1673ffffffffffffffffffffffffffffffffffffffff1663414bf389826040518263ffffffff1660e01b81526004016117ff919061277a565b602060405180830381600087803b15801561181957600080fd5b505af115801561182d573d6000803e3d6000fd5b505050506040513d601f19601f82011682018060405250810190611851919061222a565b5050505b5050565b600260009054906101000a900473ffffffffffffffffffffffffffffffffffffffff1681565b600360009054906101000a900473ffffffffffffffffffffffffffffffffffffffff1681565b600115158115151415611bcd57600460009054906101000a900473ffffffffffffffffffffffffffffffffffffffff1673ffffffffffffffffffffffffffffffffffffffff166323b872dd3330856040518463ffffffff1660e01b8152600401611911939291906126bb565b602060405180830381600087803b15801561192b57600080fd5b505af115801561193f573d6000803e3d6000fd5b505050506040513d601f19601f82011682018060405250810190611963919061212b565b50600460009054906101000a900473ffffffffffffffffffffffffffffffffffffffff1673ffffffffffffffffffffffffffffffffffffffff1663095ea7b3600260009054906101000a900473ffffffffffffffffffffffffffffffffffffffff16846040518363ffffffff1660e01b81526004016119e39291906126f2565b602060405180830381600087803b1580156119fd57600080fd5b505af1158015611a11573d6000803e3d6000fd5b505050506040513d601f19601f82011682018060405250810190611a35919061212b565b506000604051806101000160405280600460009054906101000a900473ffffffffffffffffffffffffffffffffffffffff1673ffffffffffffffffffffffffffffffffffffffff168152602001600760009054906101000a900473ffffffffffffffffffffffffffffffffffffffff1673ffffffffffffffffffffffffffffffffffffffff168152602001610bb862ffffff1681526020013373ffffffffffffffffffffffffffffffffffffffff16815260200142815260200184815260200160008152602001600073ffffffffffffffffffffffffffffffffffffffff168152509050600260009054906101000a900473ffffffffffffffffffffffffffffffffffffffff1673ffffffffffffffffffffffffffffffffffffffff1663414bf389826040518263ffffffff1660e01b8152600401611b74919061277a565b602060405180830381600087803b158015611b8e57600080fd5b505af1158015611ba2573d6000803e3d6000fd5b505050506040513d601f19601f82011682018060405250810190611bc6919061222a565b5050611f28565b6000611c0e6040518060400160405280600481526020017f574554480000000000000000000000000000000000000000000000000000000081525084610399565b9050600460009054906101000a900473ffffffffffffffffffffffffffffffffffffffff1673ffffffffffffffffffffffffffffffffffffffff166323b872dd3330846040518463ffffffff1660e01b8152600401611c6f939291906126bb565b602060405180830381600087803b158015611c8957600080fd5b505af1158015611c9d573d6000803e3d6000fd5b505050506040513d601f19601f82011682018060405250810190611cc1919061212b565b50600460009054906101000a900473ffffffffffffffffffffffffffffffffffffffff1673ffffffffffffffffffffffffffffffffffffffff1663095ea7b3600260009054906101000a900473ffffffffffffffffffffffffffffffffffffffff16836040518363ffffffff1660e01b8152600401611d419291906126f2565b602060405180830381600087803b158015611d5b57600080fd5b505af1158015611d6f573d6000803e3d6000fd5b505050506040513d601f19601f82011682018060405250810190611d93919061212b565b506000604051806101000160405280600460009054906101000a900473ffffffffffffffffffffffffffffffffffffffff1673ffffffffffffffffffffffffffffffffffffffff168152602001600760009054906101000a900473ffffffffffffffffffffffffffffffffffffffff1673ffffffffffffffffffffffffffffffffffffffff168152602001610bb862ffffff1681526020013373ffffffffffffffffffffffffffffffffffffffff16815260200142815260200183815260200160008152602001600073ffffffffffffffffffffffffffffffffffffffff168152509050600260009054906101000a900473ffffffffffffffffffffffffffffffffffffffff1673ffffffffffffffffffffffffffffffffffffffff1663414bf389826040518263ffffffff1660e01b8152600401611ed2919061277a565b602060405180830381600087803b158015611eec57600080fd5b505af1158015611f00573d6000803e3d6000fd5b505050506040513d601f19601f82011682018060405250810190611f24919061222a565b5050505b5050565b6000611f3f611f3a84612826565b6127f5565b905082815260208101848484011115611f5757600080fd5b611f6284828561298e565b509392505050565b6000611f7d611f7884612826565b6127f5565b905082815260208101848484011115611f9557600080fd5b611fa084828561299d565b509392505050565b600081359050611fb7816129e3565b92915050565b600081359050611fcc816129fa565b92915050565b600081519050611fe1816129fa565b92915050565b600082601f830112611ff857600080fd5b8135612008848260208601611f2c565b91505092915050565b600082601f83011261202257600080fd5b8151612032848260208601611f6a565b91505092915050565b60008135905061204a81612a11565b92915050565b60008151905061205f81612a11565b92915050565b60008060008060008060008060006101208a8c03121561208457600080fd5b60006120928c828d01611fa8565b99505060206120a38c828d01611fa8565b98505060406120b48c828d01611fa8565b97505060606120c58c828d01611fa8565b96505060806120d68c828d01611fa8565b95505060a06120e78c828d01611fa8565b94505060c06120f88c828d0161203b565b93505060e06121098c828d0161203b565b92505061010061211b8c828d0161203b565b9150509295985092959850929598565b60006020828403121561213d57600080fd5b600061214b84828501611fd2565b91505092915050565b60006020828403121561216657600080fd5b600082013567ffffffffffffffff81111561218057600080fd5b61218c84828501611fe7565b91505092915050565b6000602082840312156121a757600080fd5b600082015167ffffffffffffffff8111156121c157600080fd5b6121cd84828501612011565b91505092915050565b600080604083850312156121e957600080fd5b600083013567ffffffffffffffff81111561220357600080fd5b61220f85828601611fe7565b92505060206122208582860161203b565b9150509250929050565b60006020828403121561223c57600080fd5b600061224a84828501612050565b91505092915050565b6000806040838503121561226657600080fd5b60006122748582860161203b565b925050602061228585828601611fbd565b9150509250929050565b6000806000606084860312156122a457600080fd5b60006122b28682870161203b565b93505060206122c38682870161203b565b92505060406122d48682870161203b565b9150509250925092565b60006122ea83836123a3565b905092915050565b6122fb81612934565b82525050565b61230a816128dd565b82525050565b612319816128dd565b82525050565b600061232a82612866565b6123348185612894565b93508360208202850161234685612856565b8060005b85811015612382578484038952815161236385826122de565b945061236e83612887565b925060208a0199505060018101905061234a565b50829750879550505050505092915050565b61239d816128ef565b82525050565b60006123ae82612871565b6123b881856128a5565b93506123c881856020860161299d565b6123d1816129d2565b840191505092915050565b60006123e782612871565b6123f181856128b6565b935061240181856020860161299d565b80840191505092915050565b61241681612946565b82525050565b60006124278261287c565b61243181856128c1565b935061244181856020860161299d565b61244a816129d2565b840191505092915050565b60006124608261287c565b61246a81856128d2565b935061247a81856020860161299d565b80840191505092915050565b60006124936004836128d2565b91507f57455448000000000000000000000000000000000000000000000000000000006000830152600482019050919050565b60006124d36003836128d2565b91507f44414900000000000000000000000000000000000000000000000000000000006000830152600382019050919050565b60006125136004836128d2565b91507f55534443000000000000000000000000000000000000000000000000000000006000830152600482019050919050565b6101008201600082015161255d6000850182612301565b5060208201516125706020850182612301565b50604082015161258360408501826125f7565b5060608201516125966060850182612301565b5060808201516125a96080850182612615565b5060a08201516125bc60a0850182612615565b5060c08201516125cf60c0850182612615565b5060e08201516125e260e08501826125e8565b50505050565b6125f1816128fb565b82525050565b6126008161291b565b82525050565b61260f8161291b565b82525050565b61261e8161292a565b82525050565b61262d8161292a565b82525050565b600061263f82846123dc565b915081905092915050565b60006126568284612455565b915081905092915050565b600061266c82612486565b9150819050919050565b6000612681826124c6565b9150819050919050565b600061269682612506565b9150819050919050565b60006020820190506126b56000830184612310565b92915050565b60006060820190506126d060008301866122f2565b6126dd6020830185612310565b6126ea6040830184612624565b949350505050565b60006040820190506127076000830185612310565b6127146020830184612624565b9392505050565b60006020820190508181036000830152612735818461231f565b905092915050565b6000602082019050612752600083018461240d565b92915050565b60006020820190508181036000830152612772818461241c565b905092915050565b6000610100820190506127906000830184612546565b92915050565b60006020820190506127ab6000830184612606565b92915050565b60006020820190506127c66000830184612624565b92915050565b60006040820190506127e16000830185612624565b6127ee6020830184612394565b9392505050565b6000604051905081810181811067ffffffffffffffff8211171561281c5761281b6129d0565b5b8060405250919050565b600067ffffffffffffffff821115612841576128406129d0565b5b601f19601f8301169050602081019050919050565b6000819050602082019050919050565b600081519050919050565b600081519050919050565b600081519050919050565b6000602082019050919050565b600082825260208201905092915050565b600082825260208201905092915050565b600081905092915050565b600082825260208201905092915050565b600081905092915050565b60006128e8826128fb565b9050919050565b60008115159050919050565b600073ffffffffffffffffffffffffffffffffffffffff82169050919050565b600062ffffff82169050919050565b6000819050919050565b600061293f8261296a565b9050919050565b600061295182612958565b9050919050565b6000612963826128fb565b9050919050565b60006129758261297c565b9050919050565b6000612987826128fb565b9050919050565b82818337600083830152505050565b60005b838110156129bb5780820151818401526020810190506129a0565b838111156129ca576000848401525b50505050565bfe5b6000601f19601f8301169050919050565b6129ec816128dd565b81146129f757600080fd5b50565b612a03816128ef565b8114612a0e57600080fd5b50565b612a1a8161292a565b8114612a2557600080fd5b5056fea26469706673582212209e7ffd7132771600c01dc63352ee134ebfcf59becf59dd6ba484df4afe2d93e264736f6c63430007060033",
  "linkReferences": {},
  "deployedLinkReferences": {}
}