{
  "_format": "hh-sol-artifact-1",
  "contractName": "SwapUSDCTokenv2",
  "sourceName": "contracts/SwapUSDCTokenv2.sol",
  "abi": [
    {
      "inputs": [],
      "name": "DAI",
      "outputs": [
        {
          "internalType": "address",
          "name": "",
          "type": "address"
        }
      ],
      "stateMutability": "view",
      "type": "function"
    },
    {
      "inputs": [],
      "name": "LINK",
      "outputs": [
        {
          "internalType": "address",
          "name": "",
          "type": "address"
        }
      ],
      "stateMutability": "view",
      "type": "function"
    },
    {
      "inputs": [],
      "name": "USDC",
      "outputs": [
        {
          "internalType": "address",
          "name": "",
          "type": "address"
        }
      ],
      "stateMutability": "view",
      "type": "function"
    },
    {
      "inputs": [],
      "name": "WETH9",
      "outputs": [
        {
          "internalType": "address",
          "name": "",
          "type": "address"
        }
      ],
      "stateMutability": "view",
      "type": "function"
    },
    {
      "inputs": [
        {
          "internalType": "string",
          "name": "tokenid",
          "type": "string"
        },
        {
          "internalType": "uint256",
          "name": "amoountIn",
          "type": "uint256"
        }
      ],
      "name": "fetchPercentSwap",
      "outputs": [
        {
          "internalType": "uint256",
          "name": "",
          "type": "uint256"
        }
      ],
      "stateMutability": "view",
      "type": "function"
    },
    {
      "inputs": [
        {
          "internalType": "address",
          "name": "routeraddr",
          "type": "address"
        },
        {
          "internalType": "address",
          "name": "daiaddr",
          "type": "address"
        },
        {
          "internalType": "address",
          "name": "wethaddr",
          "type": "address"
        },
        {
          "internalType": "address",
          "name": "usdcaddr",
          "type": "address"
        },
        {
          "internalType": "address",
          "name": "linkaddr",
          "type": "address"
        },
        {
          "internalType": "uint256",
          "name": "daipercent",
          "type": "uint256"
        },
        {
          "internalType": "uint256",
          "name": "wethpercent",
          "type": "uint256"
        },
        {
          "internalType": "uint256",
          "name": "linkpercent",
          "type": "uint256"
        }
      ],
      "name": "initVars",
      "outputs": [],
      "stateMutability": "nonpayable",
      "type": "function"
    },
    {
      "inputs": [],
      "name": "poolFee",
      "outputs": [
        {
          "internalType": "uint24",
          "name": "",
          "type": "uint24"
        }
      ],
      "stateMutability": "view",
      "type": "function"
    },
    {
      "inputs": [],
      "name": "routerAddress",
      "outputs": [
        {
          "internalType": "address",
          "name": "",
          "type": "address"
        }
      ],
      "stateMutability": "view",
      "type": "function"
    },
    {
      "inputs": [
        {
          "internalType": "uint256",
          "name": "amt",
          "type": "uint256"
        }
      ],
      "name": "swap",
      "outputs": [
        {
          "internalType": "bytes[]",
          "name": "results",
          "type": "bytes[]"
        }
      ],
      "stateMutability": "payable",
      "type": "function"
    },
    {
      "inputs": [],
      "name": "swapRouter",
      "outputs": [
        {
          "internalType": "contract ISwapRouter",
          "name": "",
          "type": "address"
        }
      ],
      "stateMutability": "view",
      "type": "function"
    },
    {
      "inputs": [
        {
          "internalType": "uint256",
          "name": "amountIn",
          "type": "uint256"
        },
        {
          "internalType": "bool",
          "name": "isSwappedValue",
          "type": "bool"
        }
      ],
      "name": "swapToDai",
      "outputs": [],
      "stateMutability": "nonpayable",
      "type": "function"
    },
    {
      "inputs": [
        {
          "internalType": "uint256",
          "name": "amountIn",
          "type": "uint256"
        },
        {
          "internalType": "bool",
          "name": "isSwappedValue",
          "type": "bool"
        }
      ],
      "name": "swapToWETH9",
      "outputs": [],
      "stateMutability": "nonpayable",
      "type": "function"
    },
    {
      "inputs": [
        {
          "internalType": "uint256",
          "name": "amountIn",
          "type": "uint256"
        },
        {
          "internalType": "bool",
          "name": "isSwappedValue",
          "type": "bool"
        }
      ],
      "name": "swapUSDCtoLink",
      "outputs": [],
      "stateMutability": "nonpayable",
      "type": "function"
    },
    {
      "inputs": [
        {
          "internalType": "string",
          "name": "",
          "type": "string"
        }
      ],
      "name": "tokenBucket",
      "outputs": [
        {
          "internalType": "uint256",
          "name": "",
          "type": "uint256"
        }
      ],
      "stateMutability": "view",
      "type": "function"
    }
  ],
  "bytecode": "0x608060405234801561001057600080fd5b50612984806100206000396000f3fe6080604052600436106100dd5760003560e01c80635efda86c1161007f57806394b918de1161005957806394b918de146102ae578063c31c9c07146102de578063e0bab4c414610309578063f97396d714610334576100dd565b80635efda86c1461021d5780636dc9935b1461024657806389a3027114610283576100dd565b80633268cc56116100bb5780633268cc561461017557806338315cd2146101a05780633f9425ee146101c95780634aa4a4fc146101f2576100dd565b8063089fe6aa146100e25780631683587c1461010d5780631b6b6d231461014a575b600080fd5b3480156100ee57600080fd5b506100f761035d565b60405161010491906126bc565b60405180910390f35b34801561011957600080fd5b50610134600480360381019061012f9190612122565b610363565b60405161014191906126d7565b60405180910390f35b34801561015657600080fd5b5061015f61039d565b60405161016c91906125c6565b60405180910390f35b34801561018157600080fd5b5061018a6103c3565b60405161019791906125c6565b60405180910390f35b3480156101ac57600080fd5b506101c760048036038101906101c291906121c8565b6103e9565b005b3480156101d557600080fd5b506101f060048036038101906101eb9190611fc5565b610a70565b005b3480156101fe57600080fd5b50610207610c85565b60405161021491906125c6565b60405180910390f35b34801561022957600080fd5b50610244600480360381019061023f91906121c8565b610cab565b005b34801561025257600080fd5b5061026d600480360381019061026891906120a0565b611332565b60405161027a91906126d7565b60405180910390f35b34801561028f57600080fd5b50610298611360565b6040516102a591906125c6565b60405180910390f35b6102c860048036038101906102c39190612176565b611386565b6040516102d59190612641565b60405180910390f35b3480156102ea57600080fd5b506102f36117b9565b6040516103009190612663565b60405180910390f35b34801561031557600080fd5b5061031e6117df565b60405161032b91906125c6565b60405180910390f35b34801561034057600080fd5b5061035b600480360381019061035691906121c8565b611805565b005b610bb881565b6000806000846040516103769190612570565b908152602001604051809103902054905060648184028161039357fe5b0491505092915050565b600660009054906101000a900473ffffffffffffffffffffffffffffffffffffffff1681565b600160009054906101000a900473ffffffffffffffffffffffffffffffffffffffff1681565b60011515811515141561071157600560009054906101000a900473ffffffffffffffffffffffffffffffffffffffff1673ffffffffffffffffffffffffffffffffffffffff166323b872dd3330856040518463ffffffff1660e01b8152600401610455939291906125e1565b602060405180830381600087803b15801561046f57600080fd5b505af1158015610483573d6000803e3d6000fd5b505050506040513d601f19601f820116820180604052508101906104a79190612077565b50600560009054906101000a900473ffffffffffffffffffffffffffffffffffffffff1673ffffffffffffffffffffffffffffffffffffffff1663095ea7b3600260009054906101000a900473ffffffffffffffffffffffffffffffffffffffff16846040518363ffffffff1660e01b8152600401610527929190612618565b602060405180830381600087803b15801561054157600080fd5b505af1158015610555573d6000803e3d6000fd5b505050506040513d601f19601f820116820180604052508101906105799190612077565b506000604051806101000160405280600560009054906101000a900473ffffffffffffffffffffffffffffffffffffffff1673ffffffffffffffffffffffffffffffffffffffff168152602001600360009054906101000a900473ffffffffffffffffffffffffffffffffffffffff1673ffffffffffffffffffffffffffffffffffffffff168152602001610bb862ffffff1681526020013373ffffffffffffffffffffffffffffffffffffffff16815260200142815260200184815260200160008152602001600073ffffffffffffffffffffffffffffffffffffffff168152509050600260009054906101000a900473ffffffffffffffffffffffffffffffffffffffff1673ffffffffffffffffffffffffffffffffffffffff1663414bf389826040518263ffffffff1660e01b81526004016106b891906126a0565b602060405180830381600087803b1580156106d257600080fd5b505af11580156106e6573d6000803e3d6000fd5b505050506040513d601f19601f8201168201806040525081019061070a919061219f565b5050610a6c565b60006107526040518060400160405280600381526020017f444149000000000000000000000000000000000000000000000000000000000081525084610363565b9050600560009054906101000a900473ffffffffffffffffffffffffffffffffffffffff1673ffffffffffffffffffffffffffffffffffffffff166323b872dd3330846040518463ffffffff1660e01b81526004016107b3939291906125e1565b602060405180830381600087803b1580156107cd57600080fd5b505af11580156107e1573d6000803e3d6000fd5b505050506040513d601f19601f820116820180604052508101906108059190612077565b50600560009054906101000a900473ffffffffffffffffffffffffffffffffffffffff1673ffffffffffffffffffffffffffffffffffffffff1663095ea7b3600260009054906101000a900473ffffffffffffffffffffffffffffffffffffffff16836040518363ffffffff1660e01b8152600401610885929190612618565b602060405180830381600087803b15801561089f57600080fd5b505af11580156108b3573d6000803e3d6000fd5b505050506040513d601f19601f820116820180604052508101906108d79190612077565b506000604051806101000160405280600560009054906101000a900473ffffffffffffffffffffffffffffffffffffffff1673ffffffffffffffffffffffffffffffffffffffff168152602001600360009054906101000a900473ffffffffffffffffffffffffffffffffffffffff1673ffffffffffffffffffffffffffffffffffffffff168152602001610bb862ffffff1681526020013373ffffffffffffffffffffffffffffffffffffffff16815260200142815260200183815260200160008152602001600073ffffffffffffffffffffffffffffffffffffffff168152509050600260009054906101000a900473ffffffffffffffffffffffffffffffffffffffff1673ffffffffffffffffffffffffffffffffffffffff1663414bf389826040518263ffffffff1660e01b8152600401610a1691906126a0565b602060405180830381600087803b158015610a3057600080fd5b505af1158015610a44573d6000803e3d6000fd5b505050506040513d601f19601f82011682018060405250810190610a68919061219f565b5050505b5050565b87600160006101000a81548173ffffffffffffffffffffffffffffffffffffffff021916908373ffffffffffffffffffffffffffffffffffffffff160217905550600160009054906101000a900473ffffffffffffffffffffffffffffffffffffffff16600260006101000a81548173ffffffffffffffffffffffffffffffffffffffff021916908373ffffffffffffffffffffffffffffffffffffffff16021790555086600360006101000a81548173ffffffffffffffffffffffffffffffffffffffff021916908373ffffffffffffffffffffffffffffffffffffffff16021790555085600460006101000a81548173ffffffffffffffffffffffffffffffffffffffff021916908373ffffffffffffffffffffffffffffffffffffffff16021790555084600560006101000a81548173ffffffffffffffffffffffffffffffffffffffff021916908373ffffffffffffffffffffffffffffffffffffffff16021790555083600660006101000a81548173ffffffffffffffffffffffffffffffffffffffff021916908373ffffffffffffffffffffffffffffffffffffffff160217905550826000604051610c27906125b1565b908152602001604051809103902081905550816000604051610c4890612587565b908152602001604051809103902081905550806000604051610c699061259c565b9081526020016040518091039020819055505050505050505050565b600460009054906101000a900473ffffffffffffffffffffffffffffffffffffffff1681565b600115158115151415610fd357600560009054906101000a900473ffffffffffffffffffffffffffffffffffffffff1673ffffffffffffffffffffffffffffffffffffffff166323b872dd3330856040518463ffffffff1660e01b8152600401610d17939291906125e1565b602060405180830381600087803b158015610d3157600080fd5b505af1158015610d45573d6000803e3d6000fd5b505050506040513d601f19601f82011682018060405250810190610d699190612077565b50600560009054906101000a900473ffffffffffffffffffffffffffffffffffffffff1673ffffffffffffffffffffffffffffffffffffffff1663095ea7b3600260009054906101000a900473ffffffffffffffffffffffffffffffffffffffff16846040518363ffffffff1660e01b8152600401610de9929190612618565b602060405180830381600087803b158015610e0357600080fd5b505af1158015610e17573d6000803e3d6000fd5b505050506040513d601f19601f82011682018060405250810190610e3b9190612077565b506000604051806101000160405280600560009054906101000a900473ffffffffffffffffffffffffffffffffffffffff1673ffffffffffffffffffffffffffffffffffffffff168152602001600460009054906101000a900473ffffffffffffffffffffffffffffffffffffffff1673ffffffffffffffffffffffffffffffffffffffff168152602001610bb862ffffff1681526020013373ffffffffffffffffffffffffffffffffffffffff16815260200142815260200184815260200160008152602001600073ffffffffffffffffffffffffffffffffffffffff168152509050600260009054906101000a900473ffffffffffffffffffffffffffffffffffffffff1673ffffffffffffffffffffffffffffffffffffffff1663414bf389826040518263ffffffff1660e01b8152600401610f7a91906126a0565b602060405180830381600087803b158015610f9457600080fd5b505af1158015610fa8573d6000803e3d6000fd5b505050506040513d601f19601f82011682018060405250810190610fcc919061219f565b505061132e565b60006110146040518060400160405280600481526020017f574554480000000000000000000000000000000000000000000000000000000081525084610363565b9050600560009054906101000a900473ffffffffffffffffffffffffffffffffffffffff1673ffffffffffffffffffffffffffffffffffffffff166323b872dd3330846040518463ffffffff1660e01b8152600401611075939291906125e1565b602060405180830381600087803b15801561108f57600080fd5b505af11580156110a3573d6000803e3d6000fd5b505050506040513d601f19601f820116820180604052508101906110c79190612077565b50600560009054906101000a900473ffffffffffffffffffffffffffffffffffffffff1673ffffffffffffffffffffffffffffffffffffffff1663095ea7b3600260009054906101000a900473ffffffffffffffffffffffffffffffffffffffff16836040518363ffffffff1660e01b8152600401611147929190612618565b602060405180830381600087803b15801561116157600080fd5b505af1158015611175573d6000803e3d6000fd5b505050506040513d601f19601f820116820180604052508101906111999190612077565b506000604051806101000160405280600560009054906101000a900473ffffffffffffffffffffffffffffffffffffffff1673ffffffffffffffffffffffffffffffffffffffff168152602001600460009054906101000a900473ffffffffffffffffffffffffffffffffffffffff1673ffffffffffffffffffffffffffffffffffffffff168152602001610bb862ffffff1681526020013373ffffffffffffffffffffffffffffffffffffffff16815260200142815260200183815260200160008152602001600073ffffffffffffffffffffffffffffffffffffffff168152509050600260009054906101000a900473ffffffffffffffffffffffffffffffffffffffff1673ffffffffffffffffffffffffffffffffffffffff1663414bf389826040518263ffffffff1660e01b81526004016112d891906126a0565b602060405180830381600087803b1580156112f257600080fd5b505af1158015611306573d6000803e3d6000fd5b505050506040513d601f19601f8201168201806040525081019061132a919061219f565b5050505b5050565b6000818051602081018201805184825260208301602085012081835280955050505050506000915090505481565b600560009054906101000a900473ffffffffffffffffffffffffffffffffffffffff1681565b60606000600367ffffffffffffffff811180156113a257600080fd5b506040519080825280602002602001820160405280156113d657816020015b60608152602001906001900390816113c15790505b5090506338315cd260e01b6114206040518060400160405280600381526020017f444149000000000000000000000000000000000000000000000000000000000081525085610363565b60016040516024016114339291906126f2565b604051602081830303815290604052907bffffffffffffffffffffffffffffffffffffffffffffffffffffffff19166020820180517bffffffffffffffffffffffffffffffffffffffffffffffffffffffff83818316178352505050508160008151811061149d57fe5b6020026020010181905250635efda86c60e01b6114ef6040518060400160405280600481526020017f574554480000000000000000000000000000000000000000000000000000000081525085610363565b60016040516024016115029291906126f2565b604051602081830303815290604052907bffffffffffffffffffffffffffffffffffffffffffffffffffffffff19166020820180517bffffffffffffffffffffffffffffffffffffffffffffffffffffffff83818316178352505050508160018151811061156c57fe5b602002602001018190525063f97396d760e01b6115be6040518060400160405280600481526020017f4c494e4b0000000000000000000000000000000000000000000000000000000081525085610363565b60016040516024016115d19291906126f2565b604051602081830303815290604052907bffffffffffffffffffffffffffffffffffffffffffffffffffffffff19166020820180517bffffffffffffffffffffffffffffffffffffffffffffffffffffffff83818316178352505050508160028151811061163b57fe5b6020026020010181905250805167ffffffffffffffff8111801561165e57600080fd5b5060405190808252806020026020018201604052801561169257816020015b606081526020019060019003908161167d5790505b50915060005b81518110156117b2576000803073ffffffffffffffffffffffffffffffffffffffff168484815181106116c757fe5b60200260200101516040516116dc9190612559565b600060405180830381855af49150503d8060008114611717576040519150601f19603f3d011682016040523d82523d6000602084013e61171c565b606091505b50915091508161178b5760448151101561173557600080fd5b6004810190508080602001905181019061174f91906120e1565b6040517f08c379a0000000000000000000000000000000000000000000000000000000008152600401611782919061267e565b60405180910390fd5b8085848151811061179857fe5b602002602001018190525050508080600101915050611698565b5050919050565b600260009054906101000a900473ffffffffffffffffffffffffffffffffffffffff1681565b600360009054906101000a900473ffffffffffffffffffffffffffffffffffffffff1681565b600115158115151415611b2d57600560009054906101000a900473ffffffffffffffffffffffffffffffffffffffff1673ffffffffffffffffffffffffffffffffffffffff166323b872dd3330856040518463ffffffff1660e01b8152600401611871939291906125e1565b602060405180830381600087803b15801561188b57600080fd5b505af115801561189f573d6000803e3d6000fd5b505050506040513d601f19601f820116820180604052508101906118c39190612077565b50600560009054906101000a900473ffffffffffffffffffffffffffffffffffffffff1673ffffffffffffffffffffffffffffffffffffffff1663095ea7b3600260009054906101000a900473ffffffffffffffffffffffffffffffffffffffff16846040518363ffffffff1660e01b8152600401611943929190612618565b602060405180830381600087803b15801561195d57600080fd5b505af1158015611971573d6000803e3d6000fd5b505050506040513d601f19601f820116820180604052508101906119959190612077565b506000604051806101000160405280600560009054906101000a900473ffffffffffffffffffffffffffffffffffffffff1673ffffffffffffffffffffffffffffffffffffffff168152602001600660009054906101000a900473ffffffffffffffffffffffffffffffffffffffff1673ffffffffffffffffffffffffffffffffffffffff168152602001610bb862ffffff1681526020013373ffffffffffffffffffffffffffffffffffffffff16815260200142815260200184815260200160008152602001600073ffffffffffffffffffffffffffffffffffffffff168152509050600260009054906101000a900473ffffffffffffffffffffffffffffffffffffffff1673ffffffffffffffffffffffffffffffffffffffff1663414bf389826040518263ffffffff1660e01b8152600401611ad491906126a0565b602060405180830381600087803b158015611aee57600080fd5b505af1158015611b02573d6000803e3d6000fd5b505050506040513d601f19601f82011682018060405250810190611b26919061219f565b5050611e88565b6000611b6e6040518060400160405280600481526020017f4c494e4b0000000000000000000000000000000000000000000000000000000081525084610363565b9050600560009054906101000a900473ffffffffffffffffffffffffffffffffffffffff1673ffffffffffffffffffffffffffffffffffffffff166323b872dd3330846040518463ffffffff1660e01b8152600401611bcf939291906125e1565b602060405180830381600087803b158015611be957600080fd5b505af1158015611bfd573d6000803e3d6000fd5b505050506040513d601f19601f82011682018060405250810190611c219190612077565b50600560009054906101000a900473ffffffffffffffffffffffffffffffffffffffff1673ffffffffffffffffffffffffffffffffffffffff1663095ea7b3600260009054906101000a900473ffffffffffffffffffffffffffffffffffffffff16836040518363ffffffff1660e01b8152600401611ca1929190612618565b602060405180830381600087803b158015611cbb57600080fd5b505af1158015611ccf573d6000803e3d6000fd5b505050506040513d601f19601f82011682018060405250810190611cf39190612077565b506000604051806101000160405280600560009054906101000a900473ffffffffffffffffffffffffffffffffffffffff1673ffffffffffffffffffffffffffffffffffffffff168152602001600660009054906101000a900473ffffffffffffffffffffffffffffffffffffffff1673ffffffffffffffffffffffffffffffffffffffff168152602001610bb862ffffff1681526020013373ffffffffffffffffffffffffffffffffffffffff16815260200142815260200183815260200160008152602001600073ffffffffffffffffffffffffffffffffffffffff168152509050600260009054906101000a900473ffffffffffffffffffffffffffffffffffffffff1673ffffffffffffffffffffffffffffffffffffffff1663414bf389826040518263ffffffff1660e01b8152600401611e3291906126a0565b602060405180830381600087803b158015611e4c57600080fd5b505af1158015611e60573d6000803e3d6000fd5b505050506040513d601f19601f82011682018060405250810190611e84919061219f565b5050505b5050565b6000611e9f611e9a8461274c565b61271b565b905082815260208101848484011115611eb757600080fd5b611ec28482856128b4565b509392505050565b6000611edd611ed88461274c565b61271b565b905082815260208101848484011115611ef557600080fd5b611f008482856128c3565b509392505050565b600081359050611f1781612909565b92915050565b600081359050611f2c81612920565b92915050565b600081519050611f4181612920565b92915050565b600082601f830112611f5857600080fd5b8135611f68848260208601611e8c565b91505092915050565b600082601f830112611f8257600080fd5b8151611f92848260208601611eca565b91505092915050565b600081359050611faa81612937565b92915050565b600081519050611fbf81612937565b92915050565b600080600080600080600080610100898b031215611fe257600080fd5b6000611ff08b828c01611f08565b98505060206120018b828c01611f08565b97505060406120128b828c01611f08565b96505060606120238b828c01611f08565b95505060806120348b828c01611f08565b94505060a06120458b828c01611f9b565b93505060c06120568b828c01611f9b565b92505060e06120678b828c01611f9b565b9150509295985092959890939650565b60006020828403121561208957600080fd5b600061209784828501611f32565b91505092915050565b6000602082840312156120b257600080fd5b600082013567ffffffffffffffff8111156120cc57600080fd5b6120d884828501611f47565b91505092915050565b6000602082840312156120f357600080fd5b600082015167ffffffffffffffff81111561210d57600080fd5b61211984828501611f71565b91505092915050565b6000806040838503121561213557600080fd5b600083013567ffffffffffffffff81111561214f57600080fd5b61215b85828601611f47565b925050602061216c85828601611f9b565b9150509250929050565b60006020828403121561218857600080fd5b600061219684828501611f9b565b91505092915050565b6000602082840312156121b157600080fd5b60006121bf84828501611fb0565b91505092915050565b600080604083850312156121db57600080fd5b60006121e985828601611f9b565b92505060206121fa85828601611f1d565b9150509250929050565b600061221083836122c9565b905092915050565b6122218161285a565b82525050565b61223081612803565b82525050565b61223f81612803565b82525050565b60006122508261278c565b61225a81856127ba565b93508360208202850161226c8561277c565b8060005b858110156122a857848403895281516122898582612204565b9450612294836127ad565b925060208a01995050600181019050612270565b50829750879550505050505092915050565b6122c381612815565b82525050565b60006122d482612797565b6122de81856127cb565b93506122ee8185602086016128c3565b6122f7816128f8565b840191505092915050565b600061230d82612797565b61231781856127dc565b93506123278185602086016128c3565b80840191505092915050565b61233c8161286c565b82525050565b600061234d826127a2565b61235781856127e7565b93506123678185602086016128c3565b612370816128f8565b840191505092915050565b6000612386826127a2565b61239081856127f8565b93506123a08185602086016128c3565b80840191505092915050565b60006123b96004836127f8565b91507f57455448000000000000000000000000000000000000000000000000000000006000830152600482019050919050565b60006123f96004836127f8565b91507f4c494e4b000000000000000000000000000000000000000000000000000000006000830152600482019050919050565b60006124396003836127f8565b91507f44414900000000000000000000000000000000000000000000000000000000006000830152600382019050919050565b610100820160008201516124836000850182612227565b5060208201516124966020850182612227565b5060408201516124a9604085018261251d565b5060608201516124bc6060850182612227565b5060808201516124cf608085018261253b565b5060a08201516124e260a085018261253b565b5060c08201516124f560c085018261253b565b5060e082015161250860e085018261250e565b50505050565b61251781612821565b82525050565b61252681612841565b82525050565b61253581612841565b82525050565b61254481612850565b82525050565b61255381612850565b82525050565b60006125658284612302565b915081905092915050565b600061257c828461237b565b915081905092915050565b6000612592826123ac565b9150819050919050565b60006125a7826123ec565b9150819050919050565b60006125bc8261242c565b9150819050919050565b60006020820190506125db6000830184612236565b92915050565b60006060820190506125f66000830186612218565b6126036020830185612236565b612610604083018461254a565b949350505050565b600060408201905061262d6000830185612236565b61263a602083018461254a565b9392505050565b6000602082019050818103600083015261265b8184612245565b905092915050565b60006020820190506126786000830184612333565b92915050565b600060208201905081810360008301526126988184612342565b905092915050565b6000610100820190506126b6600083018461246c565b92915050565b60006020820190506126d1600083018461252c565b92915050565b60006020820190506126ec600083018461254a565b92915050565b6000604082019050612707600083018561254a565b61271460208301846122ba565b9392505050565b6000604051905081810181811067ffffffffffffffff82111715612742576127416128f6565b5b8060405250919050565b600067ffffffffffffffff821115612767576127666128f6565b5b601f19601f8301169050602081019050919050565b6000819050602082019050919050565b600081519050919050565b600081519050919050565b600081519050919050565b6000602082019050919050565b600082825260208201905092915050565b600082825260208201905092915050565b600081905092915050565b600082825260208201905092915050565b600081905092915050565b600061280e82612821565b9050919050565b60008115159050919050565b600073ffffffffffffffffffffffffffffffffffffffff82169050919050565b600062ffffff82169050919050565b6000819050919050565b600061286582612890565b9050919050565b60006128778261287e565b9050919050565b600061288982612821565b9050919050565b600061289b826128a2565b9050919050565b60006128ad82612821565b9050919050565b82818337600083830152505050565b60005b838110156128e15780820151818401526020810190506128c6565b838111156128f0576000848401525b50505050565bfe5b6000601f19601f8301169050919050565b61291281612803565b811461291d57600080fd5b50565b61292981612815565b811461293457600080fd5b50565b61294081612850565b811461294b57600080fd5b5056fea26469706673582212208d474ee7b2a34d8d5987e0b10a4a63ede870467dcb69c7e78b2c1c83094f758f64736f6c63430007060033",
  "linkReferences": {},
  "deployedLinkReferences": {}
}