{
  "contractName": "AtomicSwapEtherToERC20",
  "abi": [
    {
      "anonymous": false,
      "inputs": [
        {
          "indexed": false,
          "internalType": "bytes32",
          "name": "_swapID",
          "type": "bytes32"
        }
      ],
      "name": "Close",
      "type": "event"
    },
    {
      "anonymous": false,
      "inputs": [
        {
          "indexed": false,
          "internalType": "bytes32",
          "name": "_swapID",
          "type": "bytes32"
        }
      ],
      "name": "Expire",
      "type": "event"
    },
    {
      "anonymous": false,
      "inputs": [
        {
          "indexed": false,
          "internalType": "bytes32",
          "name": "_swapID",
          "type": "bytes32"
        },
        {
          "indexed": false,
          "internalType": "address",
          "name": "_closeTrader",
          "type": "address"
        }
      ],
      "name": "Open",
      "type": "event"
    },
    {
      "inputs": [
        {
          "internalType": "bytes32",
          "name": "_swapID",
          "type": "bytes32"
        },
        {
          "internalType": "uint256",
          "name": "_erc20Value",
          "type": "uint256"
        },
        {
          "internalType": "address",
          "name": "_erc20Trader",
          "type": "address"
        },
        {
          "internalType": "address",
          "name": "_erc20ContractAddress",
          "type": "address"
        }
      ],
      "name": "open",
      "outputs": [],
      "stateMutability": "payable",
      "type": "function",
      "payable": true
    },
    {
      "inputs": [
        {
          "internalType": "bytes32",
          "name": "_swapID",
          "type": "bytes32"
        }
      ],
      "name": "close",
      "outputs": [],
      "stateMutability": "nonpayable",
      "type": "function"
    },
    {
      "inputs": [
        {
          "internalType": "bytes32",
          "name": "_swapID",
          "type": "bytes32"
        }
      ],
      "name": "expire",
      "outputs": [],
      "stateMutability": "nonpayable",
      "type": "function"
    },
    {
      "inputs": [
        {
          "internalType": "bytes32",
          "name": "_swapID",
          "type": "bytes32"
        }
      ],
      "name": "check",
      "outputs": [
        {
          "internalType": "uint256",
          "name": "value",
          "type": "uint256"
        },
        {
          "internalType": "uint256",
          "name": "erc20Value",
          "type": "uint256"
        },
        {
          "internalType": "address",
          "name": "erc20Trader",
          "type": "address"
        },
        {
          "internalType": "address",
          "name": "erc20ContractAddress",
          "type": "address"
        }
      ],
      "stateMutability": "view",
      "type": "function",
      "constant": true
    }
  ],
  "bytecode": "0x608060405234801561001057600080fd5b50610ded806100206000396000f3fe60806040526004361061003f5760003560e01c8063399e07921461004457806339c79e0c146100845780636e792315146100ad578063c6441798146100c9575b600080fd5b34801561005057600080fd5b5061006b60048036038101906100669190610aa3565b6100f2565b60405161007b9493929190610b2a565b60405180910390f35b34801561009057600080fd5b506100ab60048036038101906100a69190610aa3565b610253565b005b6100c760048036038101906100c29190610bc7565b6105d8565b005b3480156100d557600080fd5b506100f060048036038101906100eb9190610aa3565b610812565b005b60008060008060008060008781526020019081526020016000206040518060a0016040529081600082015481526020016001820160009054906101000a900473ffffffffffffffffffffffffffffffffffffffff1673ffffffffffffffffffffffffffffffffffffffff1673ffffffffffffffffffffffffffffffffffffffff168152602001600282015481526020016003820160009054906101000a900473ffffffffffffffffffffffffffffffffffffffff1673ffffffffffffffffffffffffffffffffffffffff1673ffffffffffffffffffffffffffffffffffffffff1681526020016004820160009054906101000a900473ffffffffffffffffffffffffffffffffffffffff1673ffffffffffffffffffffffffffffffffffffffff1673ffffffffffffffffffffffffffffffffffffffff1681525050905080600001518160400151826060015183608001519450945094509450509193509193565b806001600381111561026857610267610c2e565b5b6001600083815260200190815260200160002060009054906101000a900460ff16600381111561029b5761029a610c2e565b5b146102a557600080fd5b60008060008481526020019081526020016000206040518060a0016040529081600082015481526020016001820160009054906101000a900473ffffffffffffffffffffffffffffffffffffffff1673ffffffffffffffffffffffffffffffffffffffff1673ffffffffffffffffffffffffffffffffffffffff168152602001600282015481526020016003820160009054906101000a900473ffffffffffffffffffffffffffffffffffffffff1673ffffffffffffffffffffffffffffffffffffffff1673ffffffffffffffffffffffffffffffffffffffff1681526020016004820160009054906101000a900473ffffffffffffffffffffffffffffffffffffffff1673ffffffffffffffffffffffffffffffffffffffff1673ffffffffffffffffffffffffffffffffffffffff1681525050905060026001600085815260200190815260200160002060006101000a81548160ff0219169083600381111561041357610412610c2e565b5b02179055506000816080015190508073ffffffffffffffffffffffffffffffffffffffff1663dd62ed3e8360600151306040518363ffffffff1660e01b8152600401610460929190610c5d565b602060405180830381865afa15801561047d573d6000803e3d6000fd5b505050506040513d601f19601f820116820180604052508101906104a19190610c9b565b826040015111156104b157600080fd5b8073ffffffffffffffffffffffffffffffffffffffff166323b872dd8360600151846020015185604001516040518463ffffffff1660e01b81526004016104fa93929190610cc8565b6020604051808303816000875af1158015610519573d6000803e3d6000fd5b505050506040513d601f19601f8201168201806040525081019061053d9190610d37565b61054657600080fd5b6000826060015190508073ffffffffffffffffffffffffffffffffffffffff166108fc84600001519081150290604051600060405180830381858888f19350505050158015610599573d6000803e3d6000fd5b507fc9d8209586aca26a4f59cc70108e4cf2f637da8cb4133c78a3946bc50581ea28856040516105c99190610d73565b60405180910390a15050505050565b83600060038111156105ed576105ec610c2e565b5b6001600083815260200190815260200160002060009054906101000a900460ff1660038111156106205761061f610c2e565b5b1461062a57600080fd5b60006040518060a001604052803481526020013373ffffffffffffffffffffffffffffffffffffffff1681526020018681526020018573ffffffffffffffffffffffffffffffffffffffff1681526020018473ffffffffffffffffffffffffffffffffffffffff168152509050806000808881526020019081526020016000206000820151816000015560208201518160010160006101000a81548173ffffffffffffffffffffffffffffffffffffffff021916908373ffffffffffffffffffffffffffffffffffffffff1602179055506040820151816002015560608201518160030160006101000a81548173ffffffffffffffffffffffffffffffffffffffff021916908373ffffffffffffffffffffffffffffffffffffffff16021790555060808201518160040160006101000a81548173ffffffffffffffffffffffffffffffffffffffff021916908373ffffffffffffffffffffffffffffffffffffffff160217905550905050600180600088815260200190815260200160002060006101000a81548160ff021916908360038111156107cc576107cb610c2e565b5b02179055507fb5894ff5a344c5160302de0b2027c5b55f4914e9d8e8c11b377b559e5ec789eb8685604051610802929190610d8e565b60405180910390a1505050505050565b806001600381111561082757610826610c2e565b5b6001600083815260200190815260200160002060009054906101000a900460ff16600381111561085a57610859610c2e565b5b1461086457600080fd5b60008060008481526020019081526020016000206040518060a0016040529081600082015481526020016001820160009054906101000a900473ffffffffffffffffffffffffffffffffffffffff1673ffffffffffffffffffffffffffffffffffffffff1673ffffffffffffffffffffffffffffffffffffffff168152602001600282015481526020016003820160009054906101000a900473ffffffffffffffffffffffffffffffffffffffff1673ffffffffffffffffffffffffffffffffffffffff1673ffffffffffffffffffffffffffffffffffffffff1681526020016004820160009054906101000a900473ffffffffffffffffffffffffffffffffffffffff1673ffffffffffffffffffffffffffffffffffffffff1673ffffffffffffffffffffffffffffffffffffffff1681525050905060036001600085815260200190815260200160002060006101000a81548160ff021916908360038111156109d2576109d1610c2e565b5b02179055506000816020015190508073ffffffffffffffffffffffffffffffffffffffff166108fc83600001519081150290604051600060405180830381858888f19350505050158015610a2a573d6000803e3d6000fd5b507fbddd9b693ea862fad6ecf78fd51c065be26fda94d1f3cad3a7d691453a38a73584604051610a5a9190610d73565b60405180910390a150505050565b600080fd5b6000819050919050565b610a8081610a6d565b8114610a8b57600080fd5b50565b600081359050610a9d81610a77565b92915050565b600060208284031215610ab957610ab8610a68565b5b6000610ac784828501610a8e565b91505092915050565b6000819050919050565b610ae381610ad0565b82525050565b600073ffffffffffffffffffffffffffffffffffffffff82169050919050565b6000610b1482610ae9565b9050919050565b610b2481610b09565b82525050565b6000608082019050610b3f6000830187610ada565b610b4c6020830186610ada565b610b596040830185610b1b565b610b666060830184610b1b565b95945050505050565b610b7881610ad0565b8114610b8357600080fd5b50565b600081359050610b9581610b6f565b92915050565b610ba481610b09565b8114610baf57600080fd5b50565b600081359050610bc181610b9b565b92915050565b60008060008060808587031215610be157610be0610a68565b5b6000610bef87828801610a8e565b9450506020610c0087828801610b86565b9350506040610c1187828801610bb2565b9250506060610c2287828801610bb2565b91505092959194509250565b7f4e487b7100000000000000000000000000000000000000000000000000000000600052602160045260246000fd5b6000604082019050610c726000830185610b1b565b610c7f6020830184610b1b565b9392505050565b600081519050610c9581610b6f565b92915050565b600060208284031215610cb157610cb0610a68565b5b6000610cbf84828501610c86565b91505092915050565b6000606082019050610cdd6000830186610b1b565b610cea6020830185610b1b565b610cf76040830184610ada565b949350505050565b60008115159050919050565b610d1481610cff565b8114610d1f57600080fd5b50565b600081519050610d3181610d0b565b92915050565b600060208284031215610d4d57610d4c610a68565b5b6000610d5b84828501610d22565b91505092915050565b610d6d81610a6d565b82525050565b6000602082019050610d886000830184610d64565b92915050565b6000604082019050610da36000830185610d64565b610db06020830184610b1b565b939250505056fea2646970667358221220f08b5e4d01729713b0c13e8115eb1e214cdc6740eeef267c93a03ee23b22ae1464736f6c63430008120033",
  "immutableReferences": {},
  "source": "// pragma solidity ^0.4.18;\npragma solidity ^0.8.18; //>=0.7.6 <=0.8.0;\n\nimport \"./ERC20.sol\";\n\ncontract AtomicSwapEtherToERC20 {\n\n  struct Swap {\n    uint256 value;\n    address ethTrader;\n    uint256 erc20Value;\n    address erc20Trader;\n    address erc20ContractAddress;\n  }\n\n  enum States {\n    INVALID,\n    OPEN,\n    CLOSED,\n    EXPIRED\n  }\n\n  mapping (bytes32 => Swap) private swaps;\n  mapping (bytes32 => States) private swapStates;\n\n  event Open(bytes32 _swapID, address _closeTrader);\n  event Expire(bytes32 _swapID);\n  event Close(bytes32 _swapID);\n\n  modifier onlyInvalidSwaps(bytes32 _swapID) {\n    require (swapStates[_swapID] == States.INVALID);\n    _;\n  }\n\n  modifier onlyOpenSwaps(bytes32 _swapID) {\n    require (swapStates[_swapID] == States.OPEN);\n    _;\n  }\n\n  function open(bytes32 _swapID, uint256 _erc20Value, address _erc20Trader, address _erc20ContractAddress) public onlyInvalidSwaps(_swapID) payable {\n    // Store the details of the swap.\n    Swap memory swap = Swap({\n      value: msg.value,\n      ethTrader: msg.sender,\n      erc20Value: _erc20Value,\n      erc20Trader: _erc20Trader,\n      erc20ContractAddress: _erc20ContractAddress\n    });\n    swaps[_swapID] = swap;\n    swapStates[_swapID] = States.OPEN;\n\n    emit Open(_swapID, _erc20Trader);\n  }\n\n  function close(bytes32 _swapID) public onlyOpenSwaps(_swapID) {\n    // Close the swap.\n    Swap memory swap = swaps[_swapID];\n    swapStates[_swapID] = States.CLOSED;\n\n    // Transfer the ERC20 funds from the ERC20 trader to the ETH trader.\n    ERC20 erc20Contract = ERC20(swap.erc20ContractAddress);\n    require(swap.erc20Value <= erc20Contract.allowance(swap.erc20Trader, address(this)));\n    require(erc20Contract.transferFrom(swap.erc20Trader, swap.ethTrader, swap.erc20Value));\n\n    // Transfer the ETH funds from this contract to the ERC20 trader.\n    address payable erc20TraderPayable = payable(swap.erc20Trader);\n    erc20TraderPayable.transfer(swap.value);\n\n    \n    emit Close(_swapID);\n  }\n\n  function expire(bytes32 _swapID) public onlyOpenSwaps(_swapID) {\n    // Expire the swap.\n    Swap memory swap = swaps[_swapID];\n    swapStates[_swapID] = States.EXPIRED;\n\n    // Transfer the ETH value from this contract back to the ETH trader.\n\n    address payable ethTraderPayable = payable(swap.ethTrader);\n    ethTraderPayable.transfer(swap.value);\n    emit Expire(_swapID);\n  }\n\n  function check(bytes32 _swapID) public view returns (uint256 value, uint256 erc20Value, address erc20Trader, address erc20ContractAddress) {\n    Swap memory swap = swaps[_swapID];\n    return  (swap.value, swap.erc20Value, swap.erc20Trader, swap.erc20ContractAddress);\n  }\n}\n",
  "sourcePath": "/Users/wasim/28march/AtomicSwaps/contracts/AtomicSwapEtherToERC20.sol",
  "compiler": {
    "name": "solc",
    "version": "0.8.18+commit.87f61d96.Emscripten.clang"
  },
  "schemaVersion": "3.4.13",
  "updatedAt": "2023-03-28T10:20:21.171Z",
  "networkType": "ethereum",
  "devdoc": {
    "kind": "dev",
    "methods": {},
    "version": 1
  },
  "userdoc": {
    "kind": "user",
    "methods": {},
    "version": 1
  }
}