{
  "contractName": "SwapERC20ToERC20",
  "abi": [
    {
      "anonymous": false,
      "inputs": [
        {
          "indexed": false,
          "internalType": "bytes32",
          "name": "_swapID",
          "type": "bytes32"
        }
      ],
      "name": "Close",
      "type": "event"
    },
    {
      "anonymous": false,
      "inputs": [
        {
          "indexed": false,
          "internalType": "bytes32",
          "name": "_swapID",
          "type": "bytes32"
        }
      ],
      "name": "Expire",
      "type": "event"
    },
    {
      "anonymous": false,
      "inputs": [
        {
          "indexed": false,
          "internalType": "bytes32",
          "name": "_swapID",
          "type": "bytes32"
        },
        {
          "indexed": false,
          "internalType": "address",
          "name": "_closeTrader",
          "type": "address"
        }
      ],
      "name": "Open",
      "type": "event"
    },
    {
      "inputs": [
        {
          "internalType": "bytes32",
          "name": "_swapID",
          "type": "bytes32"
        },
        {
          "internalType": "uint256",
          "name": "_openValue",
          "type": "uint256"
        },
        {
          "internalType": "address",
          "name": "_openContractAddress",
          "type": "address"
        },
        {
          "internalType": "uint256",
          "name": "_closeValue",
          "type": "uint256"
        },
        {
          "internalType": "address",
          "name": "_closeTrader",
          "type": "address"
        },
        {
          "internalType": "address",
          "name": "_closeContractAddress",
          "type": "address"
        }
      ],
      "name": "open",
      "outputs": [],
      "stateMutability": "nonpayable",
      "type": "function"
    },
    {
      "inputs": [
        {
          "internalType": "bytes32",
          "name": "_swapID",
          "type": "bytes32"
        }
      ],
      "name": "close",
      "outputs": [],
      "stateMutability": "nonpayable",
      "type": "function"
    },
    {
      "inputs": [
        {
          "internalType": "bytes32",
          "name": "_swapID",
          "type": "bytes32"
        }
      ],
      "name": "expire",
      "outputs": [],
      "stateMutability": "nonpayable",
      "type": "function"
    },
    {
      "inputs": [
        {
          "internalType": "bytes32",
          "name": "_swapID",
          "type": "bytes32"
        }
      ],
      "name": "check",
      "outputs": [
        {
          "internalType": "uint256",
          "name": "openValue",
          "type": "uint256"
        },
        {
          "internalType": "address",
          "name": "openContractAddress",
          "type": "address"
        },
        {
          "internalType": "uint256",
          "name": "closeValue",
          "type": "uint256"
        },
        {
          "internalType": "address",
          "name": "closeTrader",
          "type": "address"
        },
        {
          "internalType": "address",
          "name": "closeContractAddress",
          "type": "address"
        }
      ],
      "stateMutability": "view",
      "type": "function",
      "constant": true
    }
  ],
  "bytecode": "0x608060405234801561001057600080fd5b50611141806100206000396000f3fe608060405234801561001057600080fd5b506004361061004c5760003560e01c8063399e07921461005157806339c79e0c146100855780635454a438146100a1578063c6441798146100bd575b600080fd5b61006b60048036038101906100669190610d9a565b6100d9565b60405161007c959493929190610e21565b60405180910390f35b61009f600480360381019061009a9190610d9a565b61029a565b005b6100bb60048036038101906100b69190610ecc565b6106b9565b005b6100d760048036038101906100d29190610d9a565b610a6f565b005b6000806000806000806000808881526020019081526020016000206040518060c0016040529081600082015481526020016001820160009054906101000a900473ffffffffffffffffffffffffffffffffffffffff1673ffffffffffffffffffffffffffffffffffffffff1673ffffffffffffffffffffffffffffffffffffffff1681526020016002820160009054906101000a900473ffffffffffffffffffffffffffffffffffffffff1673ffffffffffffffffffffffffffffffffffffffff1673ffffffffffffffffffffffffffffffffffffffff168152602001600382015481526020016004820160009054906101000a900473ffffffffffffffffffffffffffffffffffffffff1673ffffffffffffffffffffffffffffffffffffffff1673ffffffffffffffffffffffffffffffffffffffff1681526020016005820160009054906101000a900473ffffffffffffffffffffffffffffffffffffffff1673ffffffffffffffffffffffffffffffffffffffff1673ffffffffffffffffffffffffffffffffffffffff1681525050905080600001518160400151826060015183608001518460a00151955095509550955095505091939590929450565b80600160038111156102af576102ae610f59565b5b6001600083815260200190815260200160002060009054906101000a900460ff1660038111156102e2576102e1610f59565b5b146102ec57600080fd5b60008060008481526020019081526020016000206040518060c0016040529081600082015481526020016001820160009054906101000a900473ffffffffffffffffffffffffffffffffffffffff1673ffffffffffffffffffffffffffffffffffffffff1673ffffffffffffffffffffffffffffffffffffffff1681526020016002820160009054906101000a900473ffffffffffffffffffffffffffffffffffffffff1673ffffffffffffffffffffffffffffffffffffffff1673ffffffffffffffffffffffffffffffffffffffff168152602001600382015481526020016004820160009054906101000a900473ffffffffffffffffffffffffffffffffffffffff1673ffffffffffffffffffffffffffffffffffffffff1673ffffffffffffffffffffffffffffffffffffffff1681526020016005820160009054906101000a900473ffffffffffffffffffffffffffffffffffffffff1673ffffffffffffffffffffffffffffffffffffffff1673ffffffffffffffffffffffffffffffffffffffff1681525050905060026001600085815260200190815260200160002060006101000a81548160ff021916908360038111156104b0576104af610f59565b5b021790555060008160a0015190508073ffffffffffffffffffffffffffffffffffffffff1663dd62ed3e8360800151306040518363ffffffff1660e01b81526004016104fd929190610f88565b602060405180830381865afa15801561051a573d6000803e3d6000fd5b505050506040513d601f19601f8201168201806040525081019061053e9190610fc6565b8260600151111561054e57600080fd5b8073ffffffffffffffffffffffffffffffffffffffff166323b872dd8360800151846020015185606001516040518463ffffffff1660e01b815260040161059793929190610ff3565b6020604051808303816000875af11580156105b6573d6000803e3d6000fd5b505050506040513d601f19601f820116820180604052508101906105da9190611062565b6105e357600080fd5b6000826040015190508073ffffffffffffffffffffffffffffffffffffffff1663a9059cbb846080015185600001516040518363ffffffff1660e01b815260040161062f92919061108f565b6020604051808303816000875af115801561064e573d6000803e3d6000fd5b505050506040513d601f19601f820116820180604052508101906106729190611062565b61067b57600080fd5b7fc9d8209586aca26a4f59cc70108e4cf2f637da8cb4133c78a3946bc50581ea28856040516106aa91906110c7565b60405180910390a15050505050565b85600060038111156106ce576106cd610f59565b5b6001600083815260200190815260200160002060009054906101000a900460ff16600381111561070157610700610f59565b5b1461070b57600080fd5b60008590508073ffffffffffffffffffffffffffffffffffffffff1663dd62ed3e33306040518363ffffffff1660e01b815260040161074b929190610f88565b602060405180830381865afa158015610768573d6000803e3d6000fd5b505050506040513d601f19601f8201168201806040525081019061078c9190610fc6565b87111561079857600080fd5b8073ffffffffffffffffffffffffffffffffffffffff166323b872dd33308a6040518463ffffffff1660e01b81526004016107d593929190610ff3565b6020604051808303816000875af11580156107f4573d6000803e3d6000fd5b505050506040513d601f19601f820116820180604052508101906108189190611062565b61082157600080fd5b60006040518060c001604052808981526020013373ffffffffffffffffffffffffffffffffffffffff1681526020018873ffffffffffffffffffffffffffffffffffffffff1681526020018781526020018673ffffffffffffffffffffffffffffffffffffffff1681526020018573ffffffffffffffffffffffffffffffffffffffff168152509050806000808b81526020019081526020016000206000820151816000015560208201518160010160006101000a81548173ffffffffffffffffffffffffffffffffffffffff021916908373ffffffffffffffffffffffffffffffffffffffff16021790555060408201518160020160006101000a81548173ffffffffffffffffffffffffffffffffffffffff021916908373ffffffffffffffffffffffffffffffffffffffff1602179055506060820151816003015560808201518160040160006101000a81548173ffffffffffffffffffffffffffffffffffffffff021916908373ffffffffffffffffffffffffffffffffffffffff16021790555060a08201518160050160006101000a81548173ffffffffffffffffffffffffffffffffffffffff021916908373ffffffffffffffffffffffffffffffffffffffff16021790555090505060018060008b815260200190815260200160002060006101000a81548160ff02191690836003811115610a2657610a25610f59565b5b02179055507fb5894ff5a344c5160302de0b2027c5b55f4914e9d8e8c11b377b559e5ec789eb8986604051610a5c9291906110e2565b60405180910390a1505050505050505050565b8060016003811115610a8457610a83610f59565b5b6001600083815260200190815260200160002060009054906101000a900460ff166003811115610ab757610ab6610f59565b5b14610ac157600080fd5b60008060008481526020019081526020016000206040518060c0016040529081600082015481526020016001820160009054906101000a900473ffffffffffffffffffffffffffffffffffffffff1673ffffffffffffffffffffffffffffffffffffffff1673ffffffffffffffffffffffffffffffffffffffff1681526020016002820160009054906101000a900473ffffffffffffffffffffffffffffffffffffffff1673ffffffffffffffffffffffffffffffffffffffff1673ffffffffffffffffffffffffffffffffffffffff168152602001600382015481526020016004820160009054906101000a900473ffffffffffffffffffffffffffffffffffffffff1673ffffffffffffffffffffffffffffffffffffffff1673ffffffffffffffffffffffffffffffffffffffff1681526020016005820160009054906101000a900473ffffffffffffffffffffffffffffffffffffffff1673ffffffffffffffffffffffffffffffffffffffff1673ffffffffffffffffffffffffffffffffffffffff1681525050905060036001600085815260200190815260200160002060006101000a81548160ff02191690836003811115610c8557610c84610f59565b5b02179055506000816040015190508073ffffffffffffffffffffffffffffffffffffffff1663a9059cbb836020015184600001516040518363ffffffff1660e01b8152600401610cd692919061108f565b6020604051808303816000875af1158015610cf5573d6000803e3d6000fd5b505050506040513d601f19601f82011682018060405250810190610d199190611062565b610d2257600080fd5b7fbddd9b693ea862fad6ecf78fd51c065be26fda94d1f3cad3a7d691453a38a73584604051610d5191906110c7565b60405180910390a150505050565b600080fd5b6000819050919050565b610d7781610d64565b8114610d8257600080fd5b50565b600081359050610d9481610d6e565b92915050565b600060208284031215610db057610daf610d5f565b5b6000610dbe84828501610d85565b91505092915050565b6000819050919050565b610dda81610dc7565b82525050565b600073ffffffffffffffffffffffffffffffffffffffff82169050919050565b6000610e0b82610de0565b9050919050565b610e1b81610e00565b82525050565b600060a082019050610e366000830188610dd1565b610e436020830187610e12565b610e506040830186610dd1565b610e5d6060830185610e12565b610e6a6080830184610e12565b9695505050505050565b610e7d81610dc7565b8114610e8857600080fd5b50565b600081359050610e9a81610e74565b92915050565b610ea981610e00565b8114610eb457600080fd5b50565b600081359050610ec681610ea0565b92915050565b60008060008060008060c08789031215610ee957610ee8610d5f565b5b6000610ef789828a01610d85565b9650506020610f0889828a01610e8b565b9550506040610f1989828a01610eb7565b9450506060610f2a89828a01610e8b565b9350506080610f3b89828a01610eb7565b92505060a0610f4c89828a01610eb7565b9150509295509295509295565b7f4e487b7100000000000000000000000000000000000000000000000000000000600052602160045260246000fd5b6000604082019050610f9d6000830185610e12565b610faa6020830184610e12565b9392505050565b600081519050610fc081610e74565b92915050565b600060208284031215610fdc57610fdb610d5f565b5b6000610fea84828501610fb1565b91505092915050565b60006060820190506110086000830186610e12565b6110156020830185610e12565b6110226040830184610dd1565b949350505050565b60008115159050919050565b61103f8161102a565b811461104a57600080fd5b50565b60008151905061105c81611036565b92915050565b60006020828403121561107857611077610d5f565b5b60006110868482850161104d565b91505092915050565b60006040820190506110a46000830185610e12565b6110b16020830184610dd1565b9392505050565b6110c181610d64565b82525050565b60006020820190506110dc60008301846110b8565b92915050565b60006040820190506110f760008301856110b8565b6111046020830184610e12565b939250505056fea26469706673582212204dde81d91a8307f12c08a958ab0b5bc47017973df295f0e35785d17bcaa1066a64736f6c63430008120033",
  "immutableReferences": {},
  "source": "// pragma solidity ^0.4.18;\npragma solidity ^0.8.18; //>=0.7.6 <=0.8.0;\n\nimport \"./ERC20.sol\";\n\ncontract SwapERC20ToERC20 {\n\n  struct Swap {\n    uint256 openValue;\n    address openTrader;\n    address openContractAddress;\n    uint256 closeValue;\n    address closeTrader;\n    address closeContractAddress;\n  }\n\n  enum States {\n    INVALID,\n    OPEN,\n    CLOSED,\n    EXPIRED\n  }\n\n  mapping (bytes32 => Swap) private swaps;\n  mapping (bytes32 => States) private swapStates;\n\n  event Open(bytes32 _swapID, address _closeTrader);\n  event Expire(bytes32 _swapID);\n  event Close(bytes32 _swapID);\n\n  modifier onlyInvalidSwaps(bytes32 _swapID) {\n    require (swapStates[_swapID] == States.INVALID);\n    _;\n  }\n\n  modifier onlyOpenSwaps(bytes32 _swapID) {\n    require (swapStates[_swapID] == States.OPEN);\n    _;\n  }\n\n  function open(bytes32 _swapID, uint256 _openValue, address _openContractAddress, uint256 _closeValue, address _closeTrader, address _closeContractAddress) public onlyInvalidSwaps(_swapID) {\n    // Transfer value from the opening trader to this contract.\n    ERC20 openERC20Contract = ERC20(_openContractAddress);\n    require(_openValue <= openERC20Contract.allowance(msg.sender, address(this)));\n    require(openERC20Contract.transferFrom(msg.sender, address(this), _openValue));\n\n    // Store the details of the swap.\n    Swap memory swap = Swap({\n      openValue: _openValue,\n      openTrader: msg.sender,\n      openContractAddress: _openContractAddress,\n      closeValue: _closeValue,\n      closeTrader: _closeTrader,\n      closeContractAddress: _closeContractAddress\n    });\n    swaps[_swapID] = swap;\n    swapStates[_swapID] = States.OPEN;\n\n    emit Open(_swapID, _closeTrader);\n  }\n\n  function close(bytes32 _swapID) public onlyOpenSwaps(_swapID) {\n    // Close the swap.\n    Swap memory swap = swaps[_swapID];\n    swapStates[_swapID] = States.CLOSED;\n\n    // Transfer the closing funds from the closing trader to the opening trader.\n    ERC20 closeERC20Contract = ERC20(swap.closeContractAddress);\n    require(swap.closeValue <= closeERC20Contract.allowance(swap.closeTrader, address(this)));\n    require(closeERC20Contract.transferFrom(swap.closeTrader, swap.openTrader, swap.closeValue));\n\n    // Transfer the opening funds from this contract to the closing trader.\n    ERC20 openERC20Contract = ERC20(swap.openContractAddress);\n    require(openERC20Contract.transfer(swap.closeTrader, swap.openValue));\n\n    emit Close(_swapID);\n  }\n\n  function expire(bytes32 _swapID) public onlyOpenSwaps(_swapID) {\n    // Expire the swap.\n    Swap memory swap = swaps[_swapID];\n    swapStates[_swapID] = States.EXPIRED;\n\n    // Transfer opening value from this contract back to the opening trader.\n    ERC20 openERC20Contract = ERC20(swap.openContractAddress);\n    require(openERC20Contract.transfer(swap.openTrader, swap.openValue));\n\n    emit Expire(_swapID);\n  }\n\n  function check(bytes32 _swapID) public view returns (uint256 openValue, address openContractAddress, uint256 closeValue, address closeTrader, address closeContractAddress) {\n    Swap memory swap = swaps[_swapID];\n    return (swap.openValue, swap.openContractAddress, swap.closeValue, swap.closeTrader, swap.closeContractAddress);\n  }\n}",
  "sourcePath": "/Users/wasim/28march/AtomicSwaps/contracts/SwapERC20ToERC20.sol",
  "compiler": {
    "name": "solc",
    "version": "0.8.18+commit.87f61d96.Emscripten.clang"
  },
  "schemaVersion": "3.4.13",
  "updatedAt": "2023-03-28T10:26:37.795Z",
  "networkType": "ethereum",
  "devdoc": {
    "kind": "dev",
    "methods": {},
    "version": 1
  },
  "userdoc": {
    "kind": "user",
    "methods": {},
    "version": 1
  }
}