{
  "contractName": "Test2ERC20",
  "abi": [
    {
      "inputs": [],
      "stateMutability": "nonpayable",
      "type": "constructor"
    },
    {
      "anonymous": false,
      "inputs": [
        {
          "indexed": true,
          "internalType": "address",
          "name": "_owner",
          "type": "address"
        },
        {
          "indexed": true,
          "internalType": "address",
          "name": "_spender",
          "type": "address"
        },
        {
          "indexed": false,
          "internalType": "uint256",
          "name": "_value",
          "type": "uint256"
        }
      ],
      "name": "Approval",
      "type": "event"
    },
    {
      "anonymous": false,
      "inputs": [
        {
          "indexed": true,
          "internalType": "address",
          "name": "_from",
          "type": "address"
        },
        {
          "indexed": false,
          "internalType": "uint256",
          "name": "_value",
          "type": "uint256"
        }
      ],
      "name": "Burn",
      "type": "event"
    },
    {
      "anonymous": false,
      "inputs": [
        {
          "indexed": false,
          "internalType": "address",
          "name": "_from",
          "type": "address"
        },
        {
          "indexed": false,
          "internalType": "address",
          "name": "_to",
          "type": "address"
        },
        {
          "indexed": false,
          "internalType": "uint256",
          "name": "_value",
          "type": "uint256"
        }
      ],
      "name": "Transfer",
      "type": "event"
    },
    {
      "inputs": [
        {
          "internalType": "address",
          "name": "",
          "type": "address"
        },
        {
          "internalType": "address",
          "name": "",
          "type": "address"
        }
      ],
      "name": "allowed",
      "outputs": [
        {
          "internalType": "uint256",
          "name": "",
          "type": "uint256"
        }
      ],
      "stateMutability": "view",
      "type": "function",
      "constant": true
    },
    {
      "inputs": [
        {
          "internalType": "address",
          "name": "",
          "type": "address"
        }
      ],
      "name": "balances",
      "outputs": [
        {
          "internalType": "uint256",
          "name": "",
          "type": "uint256"
        }
      ],
      "stateMutability": "view",
      "type": "function",
      "constant": true
    },
    {
      "inputs": [],
      "name": "decimals",
      "outputs": [
        {
          "internalType": "uint8",
          "name": "",
          "type": "uint8"
        }
      ],
      "stateMutability": "view",
      "type": "function",
      "constant": true
    },
    {
      "inputs": [],
      "name": "name",
      "outputs": [
        {
          "internalType": "string",
          "name": "",
          "type": "string"
        }
      ],
      "stateMutability": "view",
      "type": "function",
      "constant": true
    },
    {
      "inputs": [],
      "name": "symbol",
      "outputs": [
        {
          "internalType": "string",
          "name": "",
          "type": "string"
        }
      ],
      "stateMutability": "view",
      "type": "function",
      "constant": true
    },
    {
      "inputs": [],
      "name": "totalSupply",
      "outputs": [
        {
          "internalType": "uint256",
          "name": "",
          "type": "uint256"
        }
      ],
      "stateMutability": "view",
      "type": "function",
      "constant": true
    },
    {
      "inputs": [
        {
          "internalType": "address",
          "name": "_to",
          "type": "address"
        },
        {
          "internalType": "uint256",
          "name": "_value",
          "type": "uint256"
        }
      ],
      "name": "transfer",
      "outputs": [
        {
          "internalType": "bool",
          "name": "",
          "type": "bool"
        }
      ],
      "stateMutability": "nonpayable",
      "type": "function"
    },
    {
      "inputs": [
        {
          "internalType": "address",
          "name": "_from",
          "type": "address"
        },
        {
          "internalType": "address",
          "name": "_to",
          "type": "address"
        },
        {
          "internalType": "uint256",
          "name": "_value",
          "type": "uint256"
        }
      ],
      "name": "transferFrom",
      "outputs": [
        {
          "internalType": "bool",
          "name": "",
          "type": "bool"
        }
      ],
      "stateMutability": "nonpayable",
      "type": "function"
    },
    {
      "inputs": [
        {
          "internalType": "uint256",
          "name": "_value",
          "type": "uint256"
        }
      ],
      "name": "burn",
      "outputs": [
        {
          "internalType": "bool",
          "name": "",
          "type": "bool"
        }
      ],
      "stateMutability": "nonpayable",
      "type": "function"
    },
    {
      "inputs": [
        {
          "internalType": "address",
          "name": "_from",
          "type": "address"
        },
        {
          "internalType": "uint256",
          "name": "_value",
          "type": "uint256"
        }
      ],
      "name": "burnFrom",
      "outputs": [
        {
          "internalType": "bool",
          "name": "",
          "type": "bool"
        }
      ],
      "stateMutability": "nonpayable",
      "type": "function"
    },
    {
      "inputs": [
        {
          "internalType": "address",
          "name": "_spender",
          "type": "address"
        },
        {
          "internalType": "uint256",
          "name": "_value",
          "type": "uint256"
        }
      ],
      "name": "approve",
      "outputs": [
        {
          "internalType": "bool",
          "name": "",
          "type": "bool"
        }
      ],
      "stateMutability": "nonpayable",
      "type": "function"
    },
    {
      "inputs": [
        {
          "internalType": "address",
          "name": "_owner",
          "type": "address"
        }
      ],
      "name": "balanceOf",
      "outputs": [
        {
          "internalType": "uint256",
          "name": "",
          "type": "uint256"
        }
      ],
      "stateMutability": "view",
      "type": "function",
      "constant": true
    },
    {
      "inputs": [
        {
          "internalType": "address",
          "name": "_owner",
          "type": "address"
        },
        {
          "internalType": "address",
          "name": "_spender",
          "type": "address"
        }
      ],
      "name": "allowance",
      "outputs": [
        {
          "internalType": "uint256",
          "name": "",
          "type": "uint256"
        }
      ],
      "stateMutability": "view",
      "type": "function",
      "constant": true
    }
  ],
  "bytecode": "0x60806040526040518060400160405280600e81526020017f52657075626c696320546f6b656e000000000000000000000000000000000000815250600090816200004a9190620003b6565b506040518060400160405280600381526020017f52454e000000000000000000000000000000000000000000000000000000000081525060019081620000919190620003b6565b506012600260006101000a81548160ff021916908360ff160217905550600260009054906101000a900460ff1660ff16600a620000cf919062000620565b620186a0620000df919062000671565b600355348015620000ef57600080fd5b50600354600460003373ffffffffffffffffffffffffffffffffffffffff1673ffffffffffffffffffffffffffffffffffffffff16815260200190815260200160002081905550620006bc565b600081519050919050565b7f4e487b7100000000000000000000000000000000000000000000000000000000600052604160045260246000fd5b7f4e487b7100000000000000000000000000000000000000000000000000000000600052602260045260246000fd5b60006002820490506001821680620001be57607f821691505b602082108103620001d457620001d362000176565b5b50919050565b60008190508160005260206000209050919050565b60006020601f8301049050919050565b600082821b905092915050565b6000600883026200023e7fffffffffffffffffffffffffffffffffffffffffffffffffffffffffffffffff82620001ff565b6200024a8683620001ff565b95508019841693508086168417925050509392505050565b6000819050919050565b6000819050919050565b600062000297620002916200028b8462000262565b6200026c565b62000262565b9050919050565b6000819050919050565b620002b38362000276565b620002cb620002c2826200029e565b8484546200020c565b825550505050565b600090565b620002e2620002d3565b620002ef818484620002a8565b505050565b5b8181101562000317576200030b600082620002d8565b600181019050620002f5565b5050565b601f82111562000366576200033081620001da565b6200033b84620001ef565b810160208510156200034b578190505b620003636200035a85620001ef565b830182620002f4565b50505b505050565b600082821c905092915050565b60006200038b600019846008026200036b565b1980831691505092915050565b6000620003a6838362000378565b9150826002028217905092915050565b620003c1826200013c565b67ffffffffffffffff811115620003dd57620003dc62000147565b5b620003e98254620001a5565b620003f68282856200031b565b600060209050601f8311600181146200042e576000841562000419578287015190505b62000425858262000398565b86555062000495565b601f1984166200043e86620001da565b60005b82811015620004685784890151825560018201915060208501945060208101905062000441565b8683101562000488578489015162000484601f89168262000378565b8355505b6001600288020188555050505b505050505050565b7f4e487b7100000000000000000000000000000000000000000000000000000000600052601160045260246000fd5b60008160011c9050919050565b6000808291508390505b60018511156200052b578086048111156200050357620005026200049d565b5b6001851615620005135780820291505b80810290506200052385620004cc565b9450620004e3565b94509492505050565b60008262000546576001905062000619565b8162000556576000905062000619565b81600181146200056f57600281146200057a57620005b0565b600191505062000619565b60ff8411156200058f576200058e6200049d565b5b8360020a915084821115620005a957620005a86200049d565b5b5062000619565b5060208310610133831016604e8410600b8410161715620005ea5782820a905083811115620005e457620005e36200049d565b5b62000619565b620005f98484846001620004d9565b925090508184048111156200061357620006126200049d565b5b81810290505b9392505050565b60006200062d8262000262565b91506200063a8362000262565b9250620006697fffffffffffffffffffffffffffffffffffffffffffffffffffffffffffffffff848462000534565b905092915050565b60006200067e8262000262565b91506200068b8362000262565b92508282026200069b8162000262565b91508282048414831517620006b557620006b46200049d565b5b5092915050565b610fe180620006cc6000396000f3fe608060405234801561001057600080fd5b50600436106100cf5760003560e01c806342966c681161008c57806379cc67901161006657806379cc67901461024e57806395d89b411461027e578063a9059cbb1461029c578063dd62ed3e146102cc576100cf565b806342966c68146101be5780635c658165146101ee57806370a082311461021e576100cf565b806306fdde03146100d4578063095ea7b3146100f257806318160ddd1461012257806323b872dd1461014057806327e235e314610170578063313ce567146101a0575b600080fd5b6100dc6102fc565b6040516100e99190610bef565b60405180910390f35b61010c60048036038101906101079190610caa565b61038a565b6040516101199190610d05565b60405180910390f35b61012a61047c565b6040516101379190610d2f565b60405180910390f35b61015a60048036038101906101559190610d4a565b610482565b6040516101679190610d05565b60405180910390f35b61018a60048036038101906101859190610d9d565b6105b4565b6040516101979190610d2f565b60405180910390f35b6101a86105cc565b6040516101b59190610de6565b60405180910390f35b6101d860048036038101906101d39190610e01565b6105df565b6040516101e59190610d05565b60405180910390f35b61020860048036038101906102039190610e2e565b6105f2565b6040516102159190610d2f565b60405180910390f35b61023860048036038101906102339190610d9d565b610617565b6040516102459190610d2f565b60405180910390f35b61026860048036038101906102639190610caa565b610660565b6040516102759190610d05565b60405180910390f35b610286610790565b6040516102939190610bef565b60405180910390f35b6102b660048036038101906102b19190610caa565b61081e565b6040516102c39190610d05565b60405180910390f35b6102e660048036038101906102e19190610e2e565b610833565b6040516102f39190610d2f565b60405180910390f35b6000805461030990610e9d565b80601f016020809104026020016040519081016040528092919081815260200182805461033590610e9d565b80156103825780601f1061035757610100808354040283529160200191610382565b820191906000526020600020905b81548152906001019060200180831161036557829003601f168201915b505050505081565b600081600560003373ffffffffffffffffffffffffffffffffffffffff1673ffffffffffffffffffffffffffffffffffffffff16815260200190815260200160002060008573ffffffffffffffffffffffffffffffffffffffff1673ffffffffffffffffffffffffffffffffffffffff168152602001908152602001600020819055508273ffffffffffffffffffffffffffffffffffffffff163373ffffffffffffffffffffffffffffffffffffffff167f8c5be1e5ebec7d5bd14f71427d1e84f3dd0314c0f7b2291e5b200ac8c7c3b9258460405161046a9190610d2f565b60405180910390a36001905092915050565b60035481565b6000600560008573ffffffffffffffffffffffffffffffffffffffff1673ffffffffffffffffffffffffffffffffffffffff16815260200190815260200160002060003373ffffffffffffffffffffffffffffffffffffffff1673ffffffffffffffffffffffffffffffffffffffff1681526020019081526020016000205482111561050d57600080fd5b81600560008673ffffffffffffffffffffffffffffffffffffffff1673ffffffffffffffffffffffffffffffffffffffff16815260200190815260200160002060003373ffffffffffffffffffffffffffffffffffffffff1673ffffffffffffffffffffffffffffffffffffffff16815260200190815260200160002060008282546105999190610efd565b925050819055506105ab8484846108ba565b90509392505050565b60046020528060005260406000206000915090505481565b600260009054906101000a900460ff1681565b60006105eb3383610a3e565b9050919050565b6005602052816000526040600020602052806000526040600020600091509150505481565b6000600460008373ffffffffffffffffffffffffffffffffffffffff1673ffffffffffffffffffffffffffffffffffffffff168152602001908152602001600020549050919050565b6000600560008473ffffffffffffffffffffffffffffffffffffffff1673ffffffffffffffffffffffffffffffffffffffff16815260200190815260200160002060003373ffffffffffffffffffffffffffffffffffffffff1673ffffffffffffffffffffffffffffffffffffffff168152602001908152602001600020548211156106eb57600080fd5b81600560008573ffffffffffffffffffffffffffffffffffffffff1673ffffffffffffffffffffffffffffffffffffffff16815260200190815260200160002060003373ffffffffffffffffffffffffffffffffffffffff1673ffffffffffffffffffffffffffffffffffffffff16815260200190815260200160002060008282546107779190610efd565b925050819055506107888383610a3e565b905092915050565b6001805461079d90610e9d565b80601f01602080910402602001604051908101604052809291908181526020018280546107c990610e9d565b80156108165780601f106107eb57610100808354040283529160200191610816565b820191906000526020600020905b8154815290600101906020018083116107f957829003601f168201915b505050505081565b600061082b3384846108ba565b905092915050565b6000600560008473ffffffffffffffffffffffffffffffffffffffff1673ffffffffffffffffffffffffffffffffffffffff16815260200190815260200160002060008373ffffffffffffffffffffffffffffffffffffffff1673ffffffffffffffffffffffffffffffffffffffff16815260200190815260200160002054905092915050565b60008073ffffffffffffffffffffffffffffffffffffffff168373ffffffffffffffffffffffffffffffffffffffff1614158015610937575081600460008673ffffffffffffffffffffffffffffffffffffffff1673ffffffffffffffffffffffffffffffffffffffff1681526020019081526020016000205410155b80156109435750600082115b61094c57600080fd5b81600460008673ffffffffffffffffffffffffffffffffffffffff1673ffffffffffffffffffffffffffffffffffffffff168152602001908152602001600020600082825461099b9190610efd565b9250508190555081600460008573ffffffffffffffffffffffffffffffffffffffff1673ffffffffffffffffffffffffffffffffffffffff16815260200190815260200160002060008282546109f19190610f31565b925050819055507fddf252ad1be2c89b69c2b068fc378daa952ba7f163c4a11628f55a4df523b3ef848484604051610a2b93929190610f74565b60405180910390a1600190509392505050565b600081600460008573ffffffffffffffffffffffffffffffffffffffff1673ffffffffffffffffffffffffffffffffffffffff1681526020019081526020016000205410158015610a8f5750600082115b610a9857600080fd5b81600460008573ffffffffffffffffffffffffffffffffffffffff1673ffffffffffffffffffffffffffffffffffffffff1681526020019081526020016000206000828254610ae79190610efd565b925050819055508160036000828254610b009190610efd565b925050819055508273ffffffffffffffffffffffffffffffffffffffff167fcc16f5dbb4873280815c1ee09dbd06736cffcc184412cf7a71a0fdb75d397ca583604051610b4d9190610d2f565b60405180910390a26001905092915050565b600081519050919050565b600082825260208201905092915050565b60005b83811015610b99578082015181840152602081019050610b7e565b60008484015250505050565b6000601f19601f8301169050919050565b6000610bc182610b5f565b610bcb8185610b6a565b9350610bdb818560208601610b7b565b610be481610ba5565b840191505092915050565b60006020820190508181036000830152610c098184610bb6565b905092915050565b600080fd5b600073ffffffffffffffffffffffffffffffffffffffff82169050919050565b6000610c4182610c16565b9050919050565b610c5181610c36565b8114610c5c57600080fd5b50565b600081359050610c6e81610c48565b92915050565b6000819050919050565b610c8781610c74565b8114610c9257600080fd5b50565b600081359050610ca481610c7e565b92915050565b60008060408385031215610cc157610cc0610c11565b5b6000610ccf85828601610c5f565b9250506020610ce085828601610c95565b9150509250929050565b60008115159050919050565b610cff81610cea565b82525050565b6000602082019050610d1a6000830184610cf6565b92915050565b610d2981610c74565b82525050565b6000602082019050610d446000830184610d20565b92915050565b600080600060608486031215610d6357610d62610c11565b5b6000610d7186828701610c5f565b9350506020610d8286828701610c5f565b9250506040610d9386828701610c95565b9150509250925092565b600060208284031215610db357610db2610c11565b5b6000610dc184828501610c5f565b91505092915050565b600060ff82169050919050565b610de081610dca565b82525050565b6000602082019050610dfb6000830184610dd7565b92915050565b600060208284031215610e1757610e16610c11565b5b6000610e2584828501610c95565b91505092915050565b60008060408385031215610e4557610e44610c11565b5b6000610e5385828601610c5f565b9250506020610e6485828601610c5f565b9150509250929050565b7f4e487b7100000000000000000000000000000000000000000000000000000000600052602260045260246000fd5b60006002820490506001821680610eb557607f821691505b602082108103610ec857610ec7610e6e565b5b50919050565b7f4e487b7100000000000000000000000000000000000000000000000000000000600052601160045260246000fd5b6000610f0882610c74565b9150610f1383610c74565b9250828203905081811115610f2b57610f2a610ece565b5b92915050565b6000610f3c82610c74565b9150610f4783610c74565b9250828201905080821115610f5f57610f5e610ece565b5b92915050565b610f6e81610c36565b82525050565b6000606082019050610f896000830186610f65565b610f966020830185610f65565b610fa36040830184610d20565b94935050505056fea264697066735822122084ac8bed2dda07444b5c624f8a3324cc56ec44ee72bf9d1b1881a8077ce2c30464736f6c63430008120033",
  "immutableReferences": {},
  "source": "pragma solidity ^0.8.18; //>=0.7.6 <=0.8.0;\n\n\nabstract contract TokenInterface {\n\tfunction _transfer(address _from, address _to, uint256 _value) internal virtual returns (bool);\n\tfunction transfer(address _to, uint256 _value) public virtual returns (bool);\n\tfunction transferFrom(address _from, address _to, uint256 _value) public virtual returns (bool);\n\tfunction _burn(address _from, uint256 _value) internal virtual returns (bool);\n\tfunction burn(uint256 _value) public virtual returns (bool);\n\tfunction burnFrom(address _from, uint256 _value) public virtual returns (bool);\n\tfunction approve(address _spender, uint256 _value) public virtual returns (bool);\n\tfunction balanceOf(address _owner) public virtual view returns (uint256);\n\tfunction allowance(address _owner, address _spender) public  virtual view returns (uint256);\n\n\tevent Transfer(address _from, address _to, uint256 _value);\n\tevent Burn(address indexed _from, uint256 _value);\n\tevent Approval(address indexed _owner, address indexed _spender, uint256 _value);\n}\n\ncontract Test2ERC20 is TokenInterface {\n\tstring public name = \"Republic Token\";\n\tstring public symbol = \"REN\";\n\tuint8 public decimals = 18;\n  uint256 public totalSupply = 100000 * 10 ** uint256(decimals);\n\n\tmapping (address => uint256) public balances;\n\tmapping (address => mapping (address => uint256)) public allowed;\n\n\tconstructor() public {\n\t\tbalances[msg.sender] = totalSupply;\n  }\n\n\t// Transfer amount from one account to another (may require approval)\n\tfunction _transfer(address _from, address _to, uint256 _value) internal override returns (bool) {\n\t\trequire(_to != address(0) && balances[_from] >= _value && _value > 0);\n\t\tbalances[_from] -= _value;\n\t\tbalances[_to] += _value;\n\t\temit Transfer(_from, _to, _value);\n\t\treturn true;\n\t}\n\n\tfunction transfer(address _to, uint256 _value) public override returns (bool) {\n\t\treturn _transfer(msg.sender, _to, _value);\n\t}\n\n\tfunction transferFrom(address _from, address _to, uint256 _value) public override returns (bool) {\n\t\trequire(_value <= allowed[_from][msg.sender]);\n    \tallowed[_from][msg.sender] -= _value;\n\t\treturn _transfer(_from, _to, _value);\n\t}\n\n\t// Burn amount from account (may require approval)\n\tfunction _burn(address _from, uint256 _value) internal override returns (bool) {\n\t\trequire(balances[_from] >= _value && _value > 0);\n\t\tbalances[_from] -= _value;\n\t\ttotalSupply -= _value;\n\t\temit Burn(_from, _value);\n\t\treturn true;\n\t}\n\n\tfunction burn(uint256 _value) public override returns (bool) {\n\t\treturn _burn(msg.sender, _value);\n\t}\n\n\tfunction burnFrom(address _from, uint256 _value) public override returns (bool) {\n\t\trequire(_value <= allowed[_from][msg.sender]);\n\t\tallowed[_from][msg.sender] -= _value;\n\t\treturn _burn(_from, _value);\n\t}\n\n\t// Approve spender from owner's account\n\tfunction approve(address _spender, uint256 _value) public override returns (bool) {\n\t\tallowed[msg.sender][_spender] = _value;\n\t\temit Approval(msg.sender, _spender, _value);\n\t\treturn true;\n\t}\n\n\t// Return balance\n\tfunction balanceOf(address _owner) public override view returns (uint256) {\n\t\treturn balances[_owner];\n\t}\n\n\t// Return allowance\n\tfunction allowance(address _owner, address _spender) public override view returns (uint256) {\n\t\treturn allowed[_owner][_spender];\n\t}\n}",
  "sourcePath": "/Users/wasim/28march/AtomicSwaps/contracts/Test2ERC20.sol",
  "compiler": {
    "name": "solc",
    "version": "0.8.18+commit.87f61d96.Emscripten.clang"
  },
  "schemaVersion": "3.4.13",
  "updatedAt": "2023-03-28T10:26:38.730Z",
  "networkType": "ethereum",
  "devdoc": {
    "kind": "dev",
    "methods": {},
    "version": 1
  },
  "userdoc": {
    "kind": "user",
    "methods": {},
    "version": 1
  }
}