{
  "_format": "hh-sol-artifact-1",
  "contractName": "SwapUSDC",
  "sourceName": "contracts/SwapUSDC.sol",
  "abi": [
    {
      "inputs": [],
      "name": "DAI",
      "outputs": [
        {
          "internalType": "address",
          "name": "",
          "type": "address"
        }
      ],
      "stateMutability": "view",
      "type": "function"
    },
    {
      "inputs": [],
      "name": "LINK",
      "outputs": [
        {
          "internalType": "address",
          "name": "",
          "type": "address"
        }
      ],
      "stateMutability": "view",
      "type": "function"
    },
    {
      "inputs": [],
      "name": "USDC",
      "outputs": [
        {
          "internalType": "address",
          "name": "",
          "type": "address"
        }
      ],
      "stateMutability": "view",
      "type": "function"
    },
    {
      "inputs": [],
      "name": "WETH9",
      "outputs": [
        {
          "internalType": "address",
          "name": "",
          "type": "address"
        }
      ],
      "stateMutability": "view",
      "type": "function"
    },
    {
      "inputs": [
        {
          "internalType": "string",
          "name": "tokenid",
          "type": "string"
        },
        {
          "internalType": "uint256",
          "name": "amoountIn",
          "type": "uint256"
        }
      ],
      "name": "fetchPercentSwap",
      "outputs": [
        {
          "internalType": "uint256",
          "name": "",
          "type": "uint256"
        }
      ],
      "stateMutability": "view",
      "type": "function"
    },
    {
      "inputs": [
        {
          "internalType": "address",
          "name": "routeraddr",
          "type": "address"
        },
        {
          "internalType": "address",
          "name": "daiaddr",
          "type": "address"
        },
        {
          "internalType": "address",
          "name": "wethaddr",
          "type": "address"
        },
        {
          "internalType": "address",
          "name": "usdcaddr",
          "type": "address"
        },
        {
          "internalType": "address",
          "name": "linkaddr",
          "type": "address"
        },
        {
          "internalType": "uint256",
          "name": "daipercent",
          "type": "uint256"
        },
        {
          "internalType": "uint256",
          "name": "wethpercent",
          "type": "uint256"
        },
        {
          "internalType": "uint256",
          "name": "linkpercent",
          "type": "uint256"
        }
      ],
      "name": "initVars",
      "outputs": [],
      "stateMutability": "nonpayable",
      "type": "function"
    },
    {
      "inputs": [],
      "name": "poolFee",
      "outputs": [
        {
          "internalType": "uint24",
          "name": "",
          "type": "uint24"
        }
      ],
      "stateMutability": "view",
      "type": "function"
    },
    {
      "inputs": [],
      "name": "routerAddress",
      "outputs": [
        {
          "internalType": "address",
          "name": "",
          "type": "address"
        }
      ],
      "stateMutability": "view",
      "type": "function"
    },
    {
      "inputs": [
        {
          "internalType": "uint256",
          "name": "amt",
          "type": "uint256"
        }
      ],
      "name": "swap",
      "outputs": [
        {
          "internalType": "bytes[]",
          "name": "results",
          "type": "bytes[]"
        }
      ],
      "stateMutability": "payable",
      "type": "function"
    },
    {
      "inputs": [],
      "name": "swapRouter",
      "outputs": [
        {
          "internalType": "contract ISwapRouter",
          "name": "",
          "type": "address"
        }
      ],
      "stateMutability": "view",
      "type": "function"
    },
    {
      "inputs": [
        {
          "internalType": "uint256",
          "name": "amountIn",
          "type": "uint256"
        }
      ],
      "name": "swapToDai",
      "outputs": [],
      "stateMutability": "nonpayable",
      "type": "function"
    },
    {
      "inputs": [
        {
          "internalType": "uint256",
          "name": "amountIn",
          "type": "uint256"
        }
      ],
      "name": "swapToWETH9",
      "outputs": [],
      "stateMutability": "nonpayable",
      "type": "function"
    },
    {
      "inputs": [
        {
          "internalType": "uint256",
          "name": "amountIn",
          "type": "uint256"
        }
      ],
      "name": "swapUSDCtoLink",
      "outputs": [],
      "stateMutability": "nonpayable",
      "type": "function"
    },
    {
      "inputs": [
        {
          "internalType": "string",
          "name": "",
          "type": "string"
        }
      ],
      "name": "tokenBucket",
      "outputs": [
        {
          "internalType": "uint256",
          "name": "",
          "type": "uint256"
        }
      ],
      "stateMutability": "view",
      "type": "function"
    }
  ],
  "bytecode": "0x608060405234801561001057600080fd5b50611ea8806100206000396000f3fe6080604052600436106100dd5760003560e01c80634aa4a4fc1161007f57806394b918de1161005957806394b918de146102ae578063c244de1b146102de578063c31c9c0714610307578063e0bab4c414610332576100dd565b80634aa4a4fc1461021b5780636dc9935b1461024657806389a3027114610283576100dd565b80631b6b6d23116100bb5780631b6b6d231461017357806329f830111461019e5780633268cc56146101c75780633f9425ee146101f2576100dd565b8063089fe6aa146100e25780630bf973a81461010d5780631683587c14610136575b600080fd5b3480156100ee57600080fd5b506100f761035d565b6040516101049190611c09565b60405180910390f35b34801561011957600080fd5b50610134600480360381019061012f919061170e565b610363565b005b34801561014257600080fd5b5061015d600480360381019061015891906116ba565b61067c565b60405161016a9190611c24565b60405180910390f35b34801561017f57600080fd5b506101886106b6565b6040516101959190611b13565b60405180910390f35b3480156101aa57600080fd5b506101c560048036038101906101c0919061170e565b6106dc565b005b3480156101d357600080fd5b506101dc6109f5565b6040516101e99190611b13565b60405180910390f35b3480156101fe57600080fd5b506102196004803603810190610214919061155d565b610a1b565b005b34801561022757600080fd5b50610230610c30565b60405161023d9190611b13565b60405180910390f35b34801561025257600080fd5b5061026d60048036038101906102689190611638565b610c56565b60405161027a9190611c24565b60405180910390f35b34801561028f57600080fd5b50610298610c84565b6040516102a59190611b13565b60405180910390f35b6102c860048036038101906102c3919061170e565b610caa565b6040516102d59190611b8e565b60405180910390f35b3480156102ea57600080fd5b506103056004803603810190610300919061170e565b6110d4565b005b34801561031357600080fd5b5061031c6113ed565b6040516103299190611bb0565b60405180910390f35b34801561033e57600080fd5b50610347611413565b6040516103549190611b13565b60405180910390f35b610bb881565b600560009054906101000a900473ffffffffffffffffffffffffffffffffffffffff1673ffffffffffffffffffffffffffffffffffffffff166323b872dd3330846040518463ffffffff1660e01b81526004016103c293929190611b2e565b602060405180830381600087803b1580156103dc57600080fd5b505af11580156103f0573d6000803e3d6000fd5b505050506040513d601f19601f82011682018060405250810190610414919061160f565b50600560009054906101000a900473ffffffffffffffffffffffffffffffffffffffff1673ffffffffffffffffffffffffffffffffffffffff1663095ea7b3600260009054906101000a900473ffffffffffffffffffffffffffffffffffffffff16836040518363ffffffff1660e01b8152600401610494929190611b65565b602060405180830381600087803b1580156104ae57600080fd5b505af11580156104c2573d6000803e3d6000fd5b505050506040513d601f19601f820116820180604052508101906104e6919061160f565b506000604051806101000160405280600560009054906101000a900473ffffffffffffffffffffffffffffffffffffffff1673ffffffffffffffffffffffffffffffffffffffff168152602001600660009054906101000a900473ffffffffffffffffffffffffffffffffffffffff1673ffffffffffffffffffffffffffffffffffffffff168152602001610bb862ffffff1681526020013373ffffffffffffffffffffffffffffffffffffffff16815260200142815260200183815260200160008152602001600073ffffffffffffffffffffffffffffffffffffffff168152509050600260009054906101000a900473ffffffffffffffffffffffffffffffffffffffff1673ffffffffffffffffffffffffffffffffffffffff1663414bf389826040518263ffffffff1660e01b81526004016106259190611bed565b602060405180830381600087803b15801561063f57600080fd5b505af1158015610653573d6000803e3d6000fd5b505050506040513d601f19601f820116820180604052508101906106779190611737565b505050565b60008060008460405161068f9190611abd565b90815260200160405180910390205490506064818402816106ac57fe5b0491505092915050565b600660009054906101000a900473ffffffffffffffffffffffffffffffffffffffff1681565b600560009054906101000a900473ffffffffffffffffffffffffffffffffffffffff1673ffffffffffffffffffffffffffffffffffffffff166323b872dd3330846040518463ffffffff1660e01b815260040161073b93929190611b2e565b602060405180830381600087803b15801561075557600080fd5b505af1158015610769573d6000803e3d6000fd5b505050506040513d601f19601f8201168201806040525081019061078d919061160f565b50600560009054906101000a900473ffffffffffffffffffffffffffffffffffffffff1673ffffffffffffffffffffffffffffffffffffffff1663095ea7b3600260009054906101000a900473ffffffffffffffffffffffffffffffffffffffff16836040518363ffffffff1660e01b815260040161080d929190611b65565b602060405180830381600087803b15801561082757600080fd5b505af115801561083b573d6000803e3d6000fd5b505050506040513d601f19601f8201168201806040525081019061085f919061160f565b506000604051806101000160405280600560009054906101000a900473ffffffffffffffffffffffffffffffffffffffff1673ffffffffffffffffffffffffffffffffffffffff168152602001600460009054906101000a900473ffffffffffffffffffffffffffffffffffffffff1673ffffffffffffffffffffffffffffffffffffffff168152602001610bb862ffffff1681526020013373ffffffffffffffffffffffffffffffffffffffff16815260200142815260200183815260200160008152602001600073ffffffffffffffffffffffffffffffffffffffff168152509050600260009054906101000a900473ffffffffffffffffffffffffffffffffffffffff1673ffffffffffffffffffffffffffffffffffffffff1663414bf389826040518263ffffffff1660e01b815260040161099e9190611bed565b602060405180830381600087803b1580156109b857600080fd5b505af11580156109cc573d6000803e3d6000fd5b505050506040513d601f19601f820116820180604052508101906109f09190611737565b505050565b600160009054906101000a900473ffffffffffffffffffffffffffffffffffffffff1681565b87600160006101000a81548173ffffffffffffffffffffffffffffffffffffffff021916908373ffffffffffffffffffffffffffffffffffffffff160217905550600160009054906101000a900473ffffffffffffffffffffffffffffffffffffffff16600260006101000a81548173ffffffffffffffffffffffffffffffffffffffff021916908373ffffffffffffffffffffffffffffffffffffffff16021790555086600360006101000a81548173ffffffffffffffffffffffffffffffffffffffff021916908373ffffffffffffffffffffffffffffffffffffffff16021790555085600460006101000a81548173ffffffffffffffffffffffffffffffffffffffff021916908373ffffffffffffffffffffffffffffffffffffffff16021790555084600560006101000a81548173ffffffffffffffffffffffffffffffffffffffff021916908373ffffffffffffffffffffffffffffffffffffffff16021790555083600660006101000a81548173ffffffffffffffffffffffffffffffffffffffff021916908373ffffffffffffffffffffffffffffffffffffffff160217905550826000604051610bd290611afe565b908152602001604051809103902081905550816000604051610bf390611ad4565b908152602001604051809103902081905550806000604051610c1490611ae9565b9081526020016040518091039020819055505050505050505050565b600460009054906101000a900473ffffffffffffffffffffffffffffffffffffffff1681565b6000818051602081018201805184825260208301602085012081835280955050505050506000915090505481565b600560009054906101000a900473ffffffffffffffffffffffffffffffffffffffff1681565b60606000600367ffffffffffffffff81118015610cc657600080fd5b50604051908082528060200260200182016040528015610cfa57816020015b6060815260200190600190039081610ce55790505b50905063c244de1b60e01b610d446040518060400160405280600381526020017f44414900000000000000000000000000000000000000000000000000000000008152508561067c565b604051602401610d549190611c24565b604051602081830303815290604052907bffffffffffffffffffffffffffffffffffffffffffffffffffffffff19166020820180517bffffffffffffffffffffffffffffffffffffffffffffffffffffffff838183161783525050505081600081518110610dbe57fe5b60200260200101819052506329f8301160e01b610e106040518060400160405280600481526020017f57455448000000000000000000000000000000000000000000000000000000008152508561067c565b604051602401610e209190611c24565b604051602081830303815290604052907bffffffffffffffffffffffffffffffffffffffffffffffffffffffff19166020820180517bffffffffffffffffffffffffffffffffffffffffffffffffffffffff838183161783525050505081600181518110610e8a57fe5b6020026020010181905250630bf973a860e01b610edc6040518060400160405280600481526020017f4c494e4b000000000000000000000000000000000000000000000000000000008152508561067c565b604051602401610eec9190611c24565b604051602081830303815290604052907bffffffffffffffffffffffffffffffffffffffffffffffffffffffff19166020820180517bffffffffffffffffffffffffffffffffffffffffffffffffffffffff838183161783525050505081600281518110610f5657fe5b6020026020010181905250805167ffffffffffffffff81118015610f7957600080fd5b50604051908082528060200260200182016040528015610fad57816020015b6060815260200190600190039081610f985790505b50915060005b81518110156110cd576000803073ffffffffffffffffffffffffffffffffffffffff16848481518110610fe257fe5b6020026020010151604051610ff79190611aa6565b600060405180830381855af49150503d8060008114611032576040519150601f19603f3d011682016040523d82523d6000602084013e611037565b606091505b5091509150816110a65760448151101561105057600080fd5b6004810190508080602001905181019061106a9190611679565b6040517f08c379a000000000000000000000000000000000000000000000000000000000815260040161109d9190611bcb565b60405180910390fd5b808584815181106110b357fe5b602002602001018190525050508080600101915050610fb3565b5050919050565b600560009054906101000a900473ffffffffffffffffffffffffffffffffffffffff1673ffffffffffffffffffffffffffffffffffffffff166323b872dd3330846040518463ffffffff1660e01b815260040161113393929190611b2e565b602060405180830381600087803b15801561114d57600080fd5b505af1158015611161573d6000803e3d6000fd5b505050506040513d601f19601f82011682018060405250810190611185919061160f565b50600560009054906101000a900473ffffffffffffffffffffffffffffffffffffffff1673ffffffffffffffffffffffffffffffffffffffff1663095ea7b3600260009054906101000a900473ffffffffffffffffffffffffffffffffffffffff16836040518363ffffffff1660e01b8152600401611205929190611b65565b602060405180830381600087803b15801561121f57600080fd5b505af1158015611233573d6000803e3d6000fd5b505050506040513d601f19601f82011682018060405250810190611257919061160f565b506000604051806101000160405280600560009054906101000a900473ffffffffffffffffffffffffffffffffffffffff1673ffffffffffffffffffffffffffffffffffffffff168152602001600360009054906101000a900473ffffffffffffffffffffffffffffffffffffffff1673ffffffffffffffffffffffffffffffffffffffff168152602001610bb862ffffff1681526020013373ffffffffffffffffffffffffffffffffffffffff16815260200142815260200183815260200160008152602001600073ffffffffffffffffffffffffffffffffffffffff168152509050600260009054906101000a900473ffffffffffffffffffffffffffffffffffffffff1673ffffffffffffffffffffffffffffffffffffffff1663414bf389826040518263ffffffff1660e01b81526004016113969190611bed565b602060405180830381600087803b1580156113b057600080fd5b505af11580156113c4573d6000803e3d6000fd5b505050506040513d601f19601f820116820180604052508101906113e89190611737565b505050565b600260009054906101000a900473ffffffffffffffffffffffffffffffffffffffff1681565b600360009054906101000a900473ffffffffffffffffffffffffffffffffffffffff1681565b600061144c61144784611c70565b611c3f565b90508281526020810184848401111561146457600080fd5b61146f848285611dd8565b509392505050565b600061148a61148584611c70565b611c3f565b9050828152602081018484840111156114a257600080fd5b6114ad848285611de7565b509392505050565b6000813590506114c481611e2d565b92915050565b6000815190506114d981611e44565b92915050565b600082601f8301126114f057600080fd5b8135611500848260208601611439565b91505092915050565b600082601f83011261151a57600080fd5b815161152a848260208601611477565b91505092915050565b60008135905061154281611e5b565b92915050565b60008151905061155781611e5b565b92915050565b600080600080600080600080610100898b03121561157a57600080fd5b60006115888b828c016114b5565b98505060206115998b828c016114b5565b97505060406115aa8b828c016114b5565b96505060606115bb8b828c016114b5565b95505060806115cc8b828c016114b5565b94505060a06115dd8b828c01611533565b93505060c06115ee8b828c01611533565b92505060e06115ff8b828c01611533565b9150509295985092959890939650565b60006020828403121561162157600080fd5b600061162f848285016114ca565b91505092915050565b60006020828403121561164a57600080fd5b600082013567ffffffffffffffff81111561166457600080fd5b611670848285016114df565b91505092915050565b60006020828403121561168b57600080fd5b600082015167ffffffffffffffff8111156116a557600080fd5b6116b184828501611509565b91505092915050565b600080604083850312156116cd57600080fd5b600083013567ffffffffffffffff8111156116e757600080fd5b6116f3858286016114df565b925050602061170485828601611533565b9150509250929050565b60006020828403121561172057600080fd5b600061172e84828501611533565b91505092915050565b60006020828403121561174957600080fd5b600061175784828501611548565b91505092915050565b600061176c8383611816565b905092915050565b61177d81611d7e565b82525050565b61178c81611d27565b82525050565b61179b81611d27565b82525050565b60006117ac82611cb0565b6117b68185611cde565b9350836020820285016117c885611ca0565b8060005b8581101561180457848403895281516117e58582611760565b94506117f083611cd1565b925060208a019950506001810190506117cc565b50829750879550505050505092915050565b600061182182611cbb565b61182b8185611cef565b935061183b818560208601611de7565b61184481611e1c565b840191505092915050565b600061185a82611cbb565b6118648185611d00565b9350611874818560208601611de7565b80840191505092915050565b61188981611d90565b82525050565b600061189a82611cc6565b6118a48185611d0b565b93506118b4818560208601611de7565b6118bd81611e1c565b840191505092915050565b60006118d382611cc6565b6118dd8185611d1c565b93506118ed818560208601611de7565b80840191505092915050565b6000611906600483611d1c565b91507f57455448000000000000000000000000000000000000000000000000000000006000830152600482019050919050565b6000611946600483611d1c565b91507f4c494e4b000000000000000000000000000000000000000000000000000000006000830152600482019050919050565b6000611986600383611d1c565b91507f44414900000000000000000000000000000000000000000000000000000000006000830152600382019050919050565b610100820160008201516119d06000850182611783565b5060208201516119e36020850182611783565b5060408201516119f66040850182611a6a565b506060820151611a096060850182611783565b506080820151611a1c6080850182611a88565b5060a0820151611a2f60a0850182611a88565b5060c0820151611a4260c0850182611a88565b5060e0820151611a5560e0850182611a5b565b50505050565b611a6481611d45565b82525050565b611a7381611d65565b82525050565b611a8281611d65565b82525050565b611a9181611d74565b82525050565b611aa081611d74565b82525050565b6000611ab2828461184f565b915081905092915050565b6000611ac982846118c8565b915081905092915050565b6000611adf826118f9565b9150819050919050565b6000611af482611939565b9150819050919050565b6000611b0982611979565b9150819050919050565b6000602082019050611b286000830184611792565b92915050565b6000606082019050611b436000830186611774565b611b506020830185611792565b611b5d6040830184611a97565b949350505050565b6000604082019050611b7a6000830185611792565b611b876020830184611a97565b9392505050565b60006020820190508181036000830152611ba881846117a1565b905092915050565b6000602082019050611bc56000830184611880565b92915050565b60006020820190508181036000830152611be5818461188f565b905092915050565b600061010082019050611c0360008301846119b9565b92915050565b6000602082019050611c1e6000830184611a79565b92915050565b6000602082019050611c396000830184611a97565b92915050565b6000604051905081810181811067ffffffffffffffff82111715611c6657611c65611e1a565b5b8060405250919050565b600067ffffffffffffffff821115611c8b57611c8a611e1a565b5b601f19601f8301169050602081019050919050565b6000819050602082019050919050565b600081519050919050565b600081519050919050565b600081519050919050565b6000602082019050919050565b600082825260208201905092915050565b600082825260208201905092915050565b600081905092915050565b600082825260208201905092915050565b600081905092915050565b6000611d3282611d45565b9050919050565b60008115159050919050565b600073ffffffffffffffffffffffffffffffffffffffff82169050919050565b600062ffffff82169050919050565b6000819050919050565b6000611d8982611db4565b9050919050565b6000611d9b82611da2565b9050919050565b6000611dad82611d45565b9050919050565b6000611dbf82611dc6565b9050919050565b6000611dd182611d45565b9050919050565b82818337600083830152505050565b60005b83811015611e05578082015181840152602081019050611dea565b83811115611e14576000848401525b50505050565bfe5b6000601f19601f8301169050919050565b611e3681611d27565b8114611e4157600080fd5b50565b611e4d81611d39565b8114611e5857600080fd5b50565b611e6481611d74565b8114611e6f57600080fd5b5056fea26469706673582212206f945d4ee18138ba1bb4bbb50f1bed6caa32074b78a1e1c6c59a505c89e5265564736f6c63430007060033",
  "linkReferences": {},
  "deployedLinkReferences": {}
}